:020000040000FA
:060000006BEF16F0120088
:0600080004EF08F01200F5
:060018000CEF08F01200DD
:061000006BEF16F0120078
:021006001200D6
:06100800C7EF13F0120017
:02100E000000E0
:0610180012EF14F01200BB
:02101E000100CF
:0C1020000E100000FE00000002000000A6
:04102C00D9CFE6FF33
:10103000E1CFD9FFE652A0940F015F6B626A536B58
:10104000020EE66EE66AE66A540EE66E0F0EE66E75
:1010500041EC16F00B6E050EE15E0B50160E616E44
:101060000F019F0E5B6F7B0E606EDF6ADF500B6EB1
:101070000C6A0C0E0B5C000E0C5810E2DF50040DD5
:10108000F3CFE9FFF4CFEAFF000EE926020EEA22D1
:10109000EE6AEE6AEE6AEE6ADF2AE8D7648C0F0128
:1010A0005C6B6498649C62A607D062960101586BE1
:1010B0005D6B5E6B5F6BF7D70101010E716F726F35
:1010C000736B746B656BDF6A030EDF5C26E2EA6AA2
:1010D000DF34FE0BEA36E96E4E0EE926010EEA22F7
:1010E000EE6AED6AEA6ADF34FE0BEA36E96E480E14
:1010F000E926010EEA22EE6AED6ADF50EA6A690F1C
:10110000E96E010EEA22EF6ADF50EA6A6C0FE96EBF
:10111000010EEA22EF6ADF2AD7D70101080E4E6FCF
:10112000020E4F6F0F01160E536F0201300E026F49
:10113000020E036F080E016F840E006F0101416BF8
:10114000406BE552E552E7CFD9FF1200D9CFE6FF59
:10115000E1CFD9FFE6520101400507E164BA05D0AD
:10116000626A60806088020E406F6250040B06E085
:101170006050040B03E0629497EC0EF064B25AD016
:101180006250010B09E06050010B06E04FDFA084C4
:101190000101040E406F62906250100B06E0605037
:1011A000100B03E082EC0EF0629862AC19D060ACD8
:1011B0000FD0010EE66EE66A000EE66EE66A730E6A
:1011C000E66EE66A43EC15F00B6E060EE15E0B5020
:1011D000629C01016F5101E06F076F5101E1FDD980
:1011E0006250200B05E06050200B02E068EC0EF02E
:1011F0006250020B14E06050020B11E0010EE66E2B
:10120000E66A000EE66EE66AE6687F0EE66E43EC7E
:1012100015F00B6E060EE15E0B500F015F6B040EB6
:101220000101E76E4019E8AE02D0E73402D0E75082
:10123000405D02E2A19439D060A636D0DF6A040E88
:10124000DF5C32E262A630D063CF66F10101665105
:10125000780BE842E842E842676F629666B506D0CE
:101260006751EA6A6C0FE96E010E05D06751EA6AB0
:10127000690FE96E010EEA22EF70675103E1AEECEF
:101280000EF010D0000EE66EE66A660EE66E010EF7
:10129000E66E720EE66EE66A43EC15F00B6E060E15
:1012A000E15E0B50DF2ACBD7A194E552E552E7CFA0
:1012B000D9FF1200D9CFE6FFE1CFD9FF020EE12618
:1012C000FD0EDBA407D0E66AFE0EDBCFE6FF14DAE4
:1012D000E552E552FD0EDBA208D0010EE66EFE0ED1
:1012E000DBCFE6FF09DAE552E552FE0EDB500C6A71
:1012F000530F0B6E0F0E0C220BC0DEFF0CC0DDFF78
:10130000DECFE9FFDDCFEAFFFD0EDBCFEFFF020E00
:10131000E15C02E2E16AE552E16EE552E7CFD9FF16
:101320001200D9CFE6FFE1CFD9FF020EE126FD0E74
:10133000DB500AE0FE0EEA6ADB34FE0BEA36E96EA9
:101340004E0EE926010E09D0FE0EEA6ADB34FE0BD2
:10135000EA36E96E480EE926010EEA22EECFDEFFFC
:10136000EDCFDDFFD9CFE9FFDACFEAFFEE50ED1088
:1013700003E1F36AF46A44D0DECFE9FFDDCFEAFF90
:10138000020EE926000EEA22FB0EDBCFEEFFFC0E7A
:10139000DBCFEDFFDECFE9FFDDCFEAFFEE52FA0E45
:1013A000DBCFEFFF400EDECFE9FFDDCFEAFFE850F5
:1013B000EF16880EDECFE9FFDDCFEAFFE850EF122F
:1013C000FD0EDB500AE0FE0EEA6ADB34FE0BEA3665
:1013D000E96E4E0EE926010E09D0FE0EEA6ADB34F4
:1013E000FE0BEA36E96E480EE926010EEA22EF749A
:1013F000DECF0BF0DDCF0CF00BC0F3FF0CC0F4FF21
:10140000020EE15C02E2E16AE552E16EE552E7CFED
:10141000D9FF1200D9CFE6FFE1CFD9FF020EE126B6
:10142000FE0EDB5020E146C1E9FF47C1EAFFEE5264
:10143000080EEF6E46C1E9FF47C1EAFF020EE9263A
:10144000000EEA22300EEE6E020EED6E46C1E9FF8E
:1014500047C1EAFF8C0EEF6E4EC1E9FF4FC1EAFFB4
:10146000840EEF6E3BD0FD0EDB50E8240D6EFE0EB9
:10147000DB50040DF3500D24040DF3CF0BF0F4CF2B
:101480000CF0000E0B26020E0C220BC0DEFF0CC06F
:10149000DDFF840EDECFE9FFDDCFEAFFE850EF127B
:1014A000FD0EDB50E8240D6EFE0EDB50040DF350F4
:1014B0000D24010F040DF3CF0BF0F4CF0CF0000E50
:1014C0000B26020E0C220BC0DEFF0CC0DDFF840ECB
:1014D000DECFE9FFDDCFEAFFE850EF12020EE15C5C
:1014E00002E2E16AE552E16EE552E7CFD9FF120070
:1014F000D9CFE6FFE1CFD9FF64A84ED0FE0EEA6A4D
:10150000DB34FE0BEA36E96E4E0EE926010EEA22C6
:10151000EE50EFCFEAFFE96E400EEE16EE6AEE6A8D
:10152000EE6AFE0EEA6ADB34FE0BEA36E96E4E0E18
:10153000E926010EEA22EE50EFCFEAFFE96EEE7CDB
:10154000FE0EEA6ADB34FE0BEA36E96E4E0EE92641
:10155000010EEA22EF74400E0B6EFE0EEA6ADB34D7
:10156000FE0BEA36E96E4E0EE926010EEA22EE5037
:10157000EFCFEAFFE96E0B50EF16FE0EEA6ADB349E
:10158000FE0BEA36E96E4E0EE926010EEA22EE5017
:10159000EFCFEAFFE96EEF7CE552E7CFD9FF12000B
:1015A000646A606A0101406B12000101405114E15C
:1015B000646A606A160E616E0F019F0E5B6F7B0E90
:1015C000606ED08EA284A084F28E64B602D064864F
:1015D000FCD70101010E406F1200010171514DE174
:1015E000010E716F725149E1010E726F020E555D6D
:1015F0000DE14EC1E9FF4FC1EAFFEE52EF6A4EC165
:10160000E9FF4FC1EAFFC80EEF6E1200550535E144
:10161000686B44C1E9FF45C1EAFFEE52080EEF6E68
:1016200044C1E9FF45C1EAFF020EE926000EEA22A5
:10163000300EEE6E020EED6E44C1E9FF45C1EAFFC9
:10164000840EEF6E010E686F46C1E9FF47C1EAFFE5
:10165000EE52080EEF6E46C1E9FF47C1EAFF020EE7
:10166000E926000EEA22300EEE6E020EED6E46C145
:10167000E9FF47C1EAFF800EEF6E12000101736BB4
:10168000746B020E555D18E146C1E9FF47C1EAFFE0
:10169000EE52080EEF6E46C1E9FF47C1EAFF020EA7
:1016A000E926000EEA22380EEE6E020EED6E46C1FD
:1016B000E9FF47C1EAFF1DD059510201365D010122
:1016C0005A510201375904E236C259F137C25AF170
:1016D000CAD84EC1E9FF4FC1EAFF020EE926000E4B
:1016E000EA22380EEE6E020EED6E4EC1E9FF4FC1DA
:1016F000EAFFC80EEF6E1200D9CFE6FFE1CFD9FFA7
:10170000020EE126000EDE6E020EDD6EFD0EDB50D7
:10171000E8240D6EFE0EDB50040DF3500D24040D75
:10172000F4CF0CF0D9CFE9FFDACFEAFFF350EE2681
:101730000C50ED22DECFE9FFDDCFEAFFEF9EFD0E7C
:10174000DB500AE1FE0EEA6ADB34FE0BEA36E96E94
:10175000480EE926010E09D0FE0EEA6ADB34FE0BC4
:10176000EA36E96E4E0EE926010EEA22DECFEEFFE2
:10177000DDCFEDFFDECFE9FFDDCFEAFFEF9CDECF6F
:10178000E9FFDDCFEAFF040EE926000EEA22EF8C26
:10179000020EE15C02E2E16AE552E16EE552E7CF5A
:1017A000D9FF12006498010158BF2BD05DAF09D05A
:1017B000020E556F745101E161DF0101726B716BB3
:1017C000120046C1E9FF47C1EAFFEE52080EEF6E74
:1017D00046C1E9FF47C1EAFF020EE926000EEA22F0
:1017E000300EEE6E020EED6E46C1E9FF47C1EAFF14
:1017F0008C0EEF6E4EC1E9FF4FC1EAFF840EEF6E13
:101800001200020130AF0DD00101010E556F73516E
:1018100001E134DF0101726B716B705123E1EDEF77
:101820000AF00101020E556F46C1E9FF47C1EAFF08
:10183000EE52080EEF6E46C1E9FF47C1EAFF020E05
:10184000E926000EEA22300EEE6E020EED6E46C163
:10185000E9FF47C1EAFF840EEF6E726B716B705146
:1018600001E1BBDE1200D9CFE6FFE1CFD9FFE6529E
:10187000080EDF6E0101595D000E5A590AE259C186
:10188000DFFF545102E1010E03D0540502E1020EC4
:10189000546FDF500C6AE850595D596F0C505A591B
:1018A0005A6F4EC1E9FF4FC1EAFFEE52DFCFEFFFA3
:1018B000380E626F020E636F58B118D0DF502DE002
:1018C00056C1F6FF57C1F7FF562B000E57230800ED
:1018D000F550E66E62C1E9FF63C1EAFF622B000EBC
:1018E0006323E552E750EF6EDF06E8D7DF5015E0DF
:1018F00056C1E9FF57C1EAFF562B000E5723EF50A0
:10190000E66E62C1E9FF63C1EAFF622B000E63234A
:10191000E552E750EF6EDF06E9D7E552E552E7CF33
:10192000D9FF1200D9CFE6FFE1CFD9FF020EE126A1
:1019300044C1E9FF45C1EAFFEE52EFCFDFFFDFCF41
:101940000BF00B5001015E5D000E5F5902E25EC1BB
:10195000DFFFDF500B6E0C6AE8505E5D5E6F0C506F
:101960005F595F6F010EDB6ADF50F36E010EDBCF54
:10197000F4FFF350F45C16E2010EDB50EA6A380F14
:10198000E96E020EEA22EF50E66E5BC1E9FF5CC130
:10199000EAFF5B2B000E5C23E552E750EF6E010E71
:1019A000DB2AE2D7000ED8805E55000E5F5527E295
:1019B00046C1E9FF47C1EAFFEE52080EEF6E46C18D
:1019C000E9FF47C1EAFF020EE926000EEA22380EBF
:1019D000EE6E020EED6E44C1E9FF45C1EAFFEF5025
:1019E000400B06E146C1E9FF47C1EAFFC80E05D03A
:1019F00046C1E9FF47C1EAFF880EEF6E28D046C115
:101A0000E9FF47C1EAFFEE52080EEF6E46C1E9FF5B
:101A100047C1EAFF020EE926000EEA22300EEE6E02
:101A2000020EED6E46C1E9FF47C1EAFF840EEF6E7C
:101A30006051611107E005D061C1FAFF01016051F9
:101A4000F96EFADF01015D9F705101E1C6DD020E02
:101A5000E15C02E2E16AE552E16EE552E7CFD9FFCF
:101A60001200D9CFE6FFE1CFD9FFE6520101588F2E
:101A7000020EE66EE66AE66A540EE66E0F0EE66E3B
:101A800041EC16F00B6E050EE15E0B50DF6ADF5085
:101A90000B6E0C6A0C0E0B5C000E0C5810E2DF5043
:101AA000040DF3CFE9FFF4CFEAFF000EE926020EA2
:101AB000EA22EE6AEE6AEE6AEE6ADF2AE8D7648C02
:101AC000DF6A030EDF5C10E2DF50EA6A690FE96E3D
:101AD000010EEA22EF6ADF50EA6A6C0FE96E010E2E
:101AE000EA22EF6ADF2AEDD7020EE66EE66AE66AC0
:101AF000420EE66E010EE66E41EC16F00B6E050E20
:101B0000E15E0B50649C0101080E4E6F020E4F6F98
:101B1000000E446F020E456F44C146F1476F32C25A
:101B200041F1415102E1100E12D0010EE66EE66A5B
:101B3000410EE66E010EE66E010EE66EE66A43ECBD
:101B400015F00B6E060EE15E0B500101200E406F8A
:101B5000E552E552E7CFD9FF1200800E0201305D59
:101B600058E10101C00E586F02013351030A2FE002
:101B7000010A09E0030A4BE101011A0E566F2B0E10
:101B8000576F120E3ED03251F66EF76AD890F63685
:101B9000F736DB0EF6262B0EF7220900F5CF56F1AD
:101BA0000A00F5CF57F1020E0101F76A5625F66ECD
:101BB0005751F7220800F5CF59F1030EF76A562561
:101BC000F66E5751F7220800F5CF5AF11200030EB6
:101BD000325D1AE23251F66EF76AD890F636F73671
:101BE000DD0EF6262B0EF7220900F5CF56F10A007E
:101BF000F5CF57F156C1F6FF57C1F7FF0800F55072
:101C00000101596F5A6B12000101586B120001015A
:101C1000586B1200D9CFE6FFE1CFD9FF020EE126C3
:101C20000201386B396B30511F0B020A0EE0030AB8
:101C300009E0010A39E10101588F640535E102012B
:101C4000388332D00101588F2FD00101588F020103
:101C500034BF0BD034510F0BE96EEA6AD890E936E5
:101C6000EA36480EE926010E0AD034510F0BE96E10
:101C7000EA6AD890E936EA364E0EE926010EEA22E3
:101C8000EECFDEFFEDCFDDFFDECFE9FFDDCFEAFFF8
:101C9000EF50800B09E0DECFE9FFDDCFEAFFEF5028
:101CA000040B02E0010E386F010158AF07D0380E67
:101CB000566F020E576F5881020E596F020EE15C8B
:101CC00002E2E16AE552E16EE552E7CFD9FF120088
:101CD0000F0153A115D044C1E9FF45C1EAFFEF5000
:101CE00080080DE14EC1E9FF4FC1EAFFEF508408C3
:101CF00006E144C1E9FF45C1EAFF8C0EEF6E539146
:101D0000629A12006084629864820101010E656F1C
:101D1000000EE66EE66AE66EE66A750EE66EE66A46
:101D200043EC15F00B6E060EE15E0B501200010144
:101D3000656B000EE66EE66AE66EE66A740EE66EA7
:101D4000E66A43EC15F00B6E060EE15E0B506492F2
:101D5000609462A402D06294FCD71200D9CFE6FF4F
:101D6000E1CFD9FFE65201012D0E6F6FFD0E661512
:101D700053E17E0E6615E8407F0B040DF3CF44F16E
:101D8000F4CF45F1000E4427020E452344C146F12D
:101D900045C147F1467544C1E9FF45C1EAFFEF502F
:101DA0003C0BE842E8420D0835E1DF6A080EDF5CD3
:101DB00023E244C1E9FF45C1EAFF020EE926000E15
:101DC000EA22EE50EFCFEAFFE96EEF50E66EDF5009
:101DD000EA6A300FE96E020EEA22E552E750EF6E32
:101DE00044C1E9FF45C1EAFF020EE926000EEA22DE
:101DF000EE2AEF22DF2ADAD744C1E9FF45C1EAFF24
:101E0000020EE926000EEA22300EEE6E020EED6E94
:101E10000DD807D03AD805D0FD0E6615040801E1AB
:101E200059D8E552E552E7CFD9FF12000101546BB2
:101E3000706B736B746B686B556B4EC1E9FF4FC170
:101E4000EAFFEF9E4E754EC1E9FF4FC1EAFFEF9EDC
:101E50004E7546C1E9FF47C1EAFFEF9E586B596BCB
:101E60005A6B5D6B5E6B5F6B8FD8000EE66EE66A39
:101E7000E66EE66A030EE66EE66A43EC15F00B6E5C
:101E8000060EE15E0B50D2EF0BF0020E0101555D24
:101E900002E192EF0CF0556B68511AE146C1E9FF7F
:101EA00047C1EAFFEE52080EEF6E46C1E9FF47C197
:101EB000EAFF020EE926000EEA22300EEE6E020E56
:101EC000ED6E46C1E9FF47C1EAFF8C0EEF6E1200CE
:101ED000686B1200D9CFE6FFE1CFD9FFE6524EC1C1
:101EE000E9FF4FC1EAFFEF50400B01E0010EDF6E4A
:101EF00001014E75080E405D0BE132C25CFF0F011F
:101F00005C5103E00101100E02D00101040E406F8C
:101F1000550526E14EC1E9FF4FC1EAFF020EE92651
:101F2000000EEA22380EEE6E020EED6E9CDC020E02
:101F30000101545D06E14EC1E9FF4FC1EAFF840E85
:101F40000DD0DF5006E14EC1E9FF4FC1EAFFC80ED8
:101F500005D04EC1E9FF4FC1EAFF880EEF6E0FD0EA
:101F60005DAF0CD06051611107E005D061C1FAFF8F
:101F700001016051F96EFADF01015D9F556BE55279
:101F8000E552E7CFD9FF120002013051600BE84261
:101F9000E842E842E842E842000901E0120031511B
:101FA0000C0A50E00B0A3FE00C0A31E0010A22E083
:101FB0000B0A1EE0020A1CE0030A18E0080A10E0FF
:101FC000010A0CE00F0A08E0030A01E01200010117
:101FD000588F080E406F1200ADEF0DF031EF0DF08D
:101FE0000101410E566F010E576F0CD00AEF0EF033
:101FF00023EF10F034510101566F576B420E5627F4
:10200000010E57235881010E596F588F120001019C
:10201000588F02013451EA6A420FE96E010EEA223A
:1020200032C2EFFF1200000EE66EE66AE66EE66A66
:10203000020EE66EE66A43EC15F00B6E060EE15EEC
:102040000B5012001200D9CFE6FFE1CFD9FF050EE9
:10205000E1260201320510E130511F0B00090CE1AD
:102060000101588F030E0201315D04E10101010EEF
:10207000646F02D00101646B0201325101E011D1A1
:1020800030511F0B020801E00CD134510F0B000935
:1020900001E107D134510F0B020801E202D1200EF9
:1020A0000101405D01E0FDD0588F020134BF16D020
:1020B00034510F0BE96EEA6AD890E936EA36480ED9
:1020C000E926010EEA22EECFDEFFEDCFDDFF34512F
:1020D0000F0BEA6A6C0FE96E010E15D034510F0B2D
:1020E000E96EEA6AD890E936EA364E0EE926010E24
:1020F000EA22EECFDEFFEDCFDDFF34510F0BEA6AAF
:10210000690FE96E010EEA22020EEFCFDBFFD95014
:10211000020FE96EDACFEAFFEF50010B03E1000E88
:10212000DF9401D0DF8434BF0BD034510F0BE96E44
:10213000EA6AD890E936EA36480EE926010E0AD056
:1021400034510F0BE96EEA6AD890E936EA364E0E42
:10215000E926010EEA22DECFEEFFDDCFEDFF030E12
:10216000315D20E1DECFE9FFDDCFEAFFEF50800BEC
:1021700011E034BF07D034510F0BEA6A6C0FE96EDF
:10218000010E06D034510F0BEA6A690FE96E010E99
:10219000EA22EF82840EDECFE9FFDDCFEAFFE850CE
:1021A000EF127FD0DF74DECFE9FFDDCFEAFFEF5023
:1021B000800B1BE0DECFE9FFDDCFEAFFEF9EDECF35
:1021C000E9FFDDCFEAFFEF8C020EE66EE66ADECFB6
:1021D000E6FFDDCFE6FF050EE66EE66A43EC15F09E
:1021E0000B6E060EE15E0B5005D0DECFE9FFDDCFB2
:1021F000EAFFEF8CDF74D950020FE96EDACFEAFF05
:10220000EF50020B07E1DECFE9FFDDCFEAFFEF5031
:10221000800B2BE0020134BF07D034510F0BEA6A68
:102220006C0FE96E010E06D034510F0BEA6A690F8C
:10223000E96E010EEA22EF923B0E0B6EDECFE9FF54
:10224000DDCFEAFFE850EF16020EE66EE66ADECF5B
:10225000E6FFDDCFE6FF050EE66EE66A43EC15F01D
:102260000B6E060EE15E0B5007D03B0EDECFE9FF92
:10227000DDCFEAFFE850EF16020134510F0B0C6A74
:10228000530F0B6E0F0E0C22030E0BC0DBFF040E60
:102290000CC0DBFF030EDBCFE9FF040EDBCFEAFF50
:1022A000EF90050EE15C02E2E16AE552E16EE55273
:0622B000E7CFD9FF120088
:0A22B600020130511F0B010801E086
:1022C00012003051600BE842E842E842E842E8423E
:1022D000010801E01200345103E0340501E012006E
:1022E0003151220A31E0030A24E0010A15E0210AF3
:1022F0000DE0010A01E012000101F60E566F000E1A
:10230000576F080E596F5A6B588121D00101F60E94
:10231000566F000E576F1BD036C25EF137C25FF1A9
:102320000101CA0E5B6F020E5C6F606B616B5D8FAB
:1023300012000101CA0E566F020E576F070E596F39
:102340005A6BC10E586F120032C2F1F00101588F62
:1023500012000201CA6B4B0ECB6FCC6BCD6BCE6BF8
:10236000CF6B080ED06F0001E56B1A0EE66E010E02
:10237000E66E5AEC09F0E552E5521E0EE66E020ECC
:10238000E66E5AEC09F0E552E552400EE66E4A0E52
:10239000E66E020EE66EE66A020EE66E91EC09F05B
:1023A0000B6E050EE15E0B50F3CFEDF0F4CFEEF0C7
:1023B0000001EF6BF06BE66B1200D9CFE6FFE1CFC7
:1023C000D9FFFD0EDBCF06F0FE0EDBCF07F0050ECA
:1023D000061801E1075002E0000E30D0FB0EDBCF03
:1023E0000BF0FC0EDBCF0CF00001ED510B1816E1E9
:1023F000EE510C1813E1400EE66E4A0EE66E020E28
:10240000E66EE66A020EE66E91EC09F00B6E050EC2
:10241000E15E0B50F3CFEDF0F4CFEEF0FB0EDBCF2F
:102420000BF0FC0EDBCF0CF00001EF510B1805E1B7
:10243000F0510C1802E1E66BEB6B010EE552E7CFB1
:10244000D9FF1200D9CFE6FFE1CFD9FF0001E56B3C
:10245000ED51EE1102E1000E08D0EDC0E9FFEEC033
:10246000EAFFEF50800B01E0010E000945E1FC0E90
:10247000DBCF0BF0EDC0E9FFEEC0EAFFEE52EF500C
:10248000D8800B5408E2EDC0E9FFEEC0EAFFEE523F
:10249000FC0EEFCFDBFFE56BFC0EDB50E55D19E2D8
:1024A000E551EA6A4A0FE96E020EEA22EF50E66E43
:1024B000E551E76EFD0EDBCFE9FFFE0EDBCFEAFF55
:1024C000E750E926000EEA22E552E750EF6EE52BD1
:1024D000E3D7400EE66E4A0EE66E020EE66EE66A40
:1024E000020EE66E91EC09F00B6E050EE15E0B50EC
:1024F000F3CFEDF0F4CFEEF00001E551E552E7CF78
:10250000D9FF1200D9CFE6FFE1CFD9FFA094000197
:10251000E6510CE1FD0EDBCFE7F0FE0EDBCFE8F07D
:10252000FC0EDBCFEBF0010EEC6FE66FA084E55202
:10253000E7CFD9FF1200D9CFE6FFE1CFD9FF030ED5
:10254000E126A0940001E6512DE1DF6AFD0EDBCF0C
:1025500006F0FE0EDBCF07F0DE5206C0DEFF07C03E
:10256000DDFFDD52DF2ADF500B6E0C6AFF0E0B1809
:1025700002E10C500BE0010EDBCFE9FFDB2A020E7B
:10258000DBCFEAFF01E3DB2AEF50ECE1FD0EDBCF0E
:10259000E7F0FE0EDBCFE8F0DFCFEBF00001010E3D
:1025A000EC6FE66FA084030EE15C02E2E16AE552A3
:1025B000E16EE552E7CFD9FF1200D9CFE6FFE1CFB8
:1025C000D9FF030EE126A0940001E6512EE1DF6A57
:1025D000FD0EDBCF06F0FE0EDBCF07F0DE5206C0AD
:1025E000DEFF07C0DDFFDD52DF2ADF500B6E0C6A15
:1025F000FF0E0B1802E10C500CE0010EDBCFF6FFD2
:10260000DB2A020EDBCFF7FF01E3DB2A0800F550DF
:10261000EBE1FD0EDBCFE7F0FE0EDBCFE8F0DFCF26
:10262000EBF00001EC6B010EE66FA084030EE15CA1
:1026300002E2E16AE552E16EE552E7CFD9FF12000E
:10264000D9CFE6FFE1CFD9FF020EE126A094000129
:10265000EF51F01102E1000E08D0EFC0E9FFF0C029
:10266000EAFFEF50800B01E0010E000906E1030EC6
:10267000E65D01E1E66BE65102E1A0847ED0020E48
:10268000E65D16E1E66A000EE66EE66A010EE66EAB
:10269000020EE66E91EC09F00B6E050EE15E0B503A
:1026A000F3CFEFF0F4CFF0F00001030EE66F64D04B
:1026B000E60562E1400E0B6E0C6AEB510B5C000EFE
:1026C0000C5803E2400EDF6E02D0EBC0DFFFDF509C
:1026D000EB5DEB6F8A0EE96F020EEA6F010EDFCF42
:1026E000DBFFEC5116E1010EDB5028E0E7C0F6FFFE
:1026F000E8C0F7FF0800F550E9C0E9FFEAC0EAFFCB
:10270000EF6EE92B000EEA23E72BE823010EDB0630
:10271000EAD7010EDB5012E0E7C0E9FFE8C0EAFFAC
:10272000EF50E9C0E9FFEAC0EAFFEF6EE92B000EC7
:10273000EA23E72BE823010EDB06EBD70001EB5180
:1027400007E1400EDF5C02E1020E01D0030EE66FEE
:10275000DFCFE6FF8A0EE66E020EE66E010EE66E33
:10276000020EE66E91EC09F00B6E050EE15E0B5069
:10277000F3CFEFF0F4CFF0F0A084020EE15C02E2C0
:0E278000E16AE552E16EE552E7CFD9FF1200A3
:02278E00DACFA0
:10279000E4FFE2CFDAFFE9CFE4FFEACFE4FFF6CFD0
:1027A000E4FFF7CFE4FFF5CFE4FFF3CFE4FFF4CF8E
:1027B000E4FFFACFE4FF00EE00F00B0EE80403E3C1
:1027C000EECFE4FFFBD700EE0BF0030EE80403E3CB
:1027D000EECFE4FFFBD7E652A6EC08F0E55200EEA0
:1027E0000DF0030EE80403E3E5CFEDFFFBD700EEA9
:1027F0000AF00B0EE80403E3E5CFEDFFFBD7E5CFCE
:10280000FAFFE5CFF4FFE5CFF3FFE5CFF5FFE5CF26
:10281000F7FFE5CFF6FFE5CFEAFFE5CFE9FFE5CF2C
:10282000DAFF1100D8CFE4FFE0CFE4FFE46EDACFA7
:10283000E4FFE652E552E5CFDAFFE550E5CFE0FFF1
:10284000E5CFD8FF100007D80101405102E1D5ECD7
:102850000AF00FD8F9D70F0EC11202D816EF08F000
:102860000001E26BE16B010EE06FF00E8B16941627
:102870001200D9CFE6FFE1CFD9FF020EE12680D8C2
:10288000200E0101E76E4019E8AE02D0E73402D015
:10289000E750405D6BE36450020B68E10001E151D9
:1028A00011E0E05110E10001E6510DE1F20EE66E9B
:1028B0002C0EE66EDDEC12F0E552E5520001010E41
:1028C000E06F01D0E06B0001E6514EE1400EE66E94
:1028D000A00EE66E000EE66E22EC12F0E552E55216
:1028E000E552DF6EDF5040E0010EDB6ADF50F36E31
:1028F000010EDBCFF4FFF350F45C2BE2010EDB5052
:10290000EA6AA00FE96E000EEA22EF500A0A02E01E
:10291000070A09E1010EDB50EA6AA00FE96E000E1A
:10292000EA22EF5008D0010EDB50EA6AA00FE96EF0
:10293000000EEA22EF28E66E010EDB50EA6A600F15
:10294000E96E000EEA22E552E750EF6E010EDB2A37
:10295000CDD7DFCFE6FF600EE66E000EE66E82ECAE
:1029600012F0E552E552E55220EC13F0020EE15C64
:1029700002E2E16AE552E16EE552E7CFD9FF1200CB
:102980000001FE51FF1104E1100EFE6F270EFF6FD4
:10299000FE07000EFF5B64A207D0FE51FF112EE17F
:1029A0008B708BB013D027D00101405102E18B9086
:1029B00022D0400502E18B8009D0020E405D02E189
:1029C0008B8019D0040E405D03E18B908B82120046
:1029D000100E405D06E10001FE51FF110FE18B700A
:1029E0000AD0200E405D0AE10001FE51FF1106E110
:1029F0008B708BA002D08B9212008B82120012007F
:102A000012008050080B01E0010E0001E15D0DE1B4
:102A1000E25102E0E20712008050080B080A01E0D0
:102A2000010EE16F640EE26F1200E25101E0E20775
:102A3000120012005BEF11F01200A9EF11F001017A
:102A4000640520E1010165051DE1A094D9DF6492D0
:102A50000101656B0001100EE36F0E0EE46FE307DA
:102A6000000EE45BE351E411FAE16484080EE36FC5
:102A7000070EE46FE307000EE45BE351E411FAE1B3
:102A80006494A0841200D9CFE6FFE1CFD9FFFD0EF8
:102A9000DBCF06F0FE0EDBCF07F0050E061801E1D6
:102AA000075036E0E868061802E17F0E07182FE0AD
:102AB000030E061801E1075028E0020E061801E196
:102AC000075021E0010E061801E107501AE0740ECC
:102AD000061801E1075013E0750E061801E10750D2
:102AE0000CE0730E061801E1075005E0720E06189F
:102AF0000FE107500DD085DF0BD081DF09D080DFDB
:102B000007D09BDF05D098DF03D094DF01D091DFA1
:0A2B1000010EE552E7CFD9FF1200D5
:062B1A001201000202009E
:102B20000008D8040A000001010200010902430064
:102B3000020100C032090400000102020100052464
:102B400000100104240202052406000105240100EE
:102B5000010705810308000209040100020A0000C0
:102B60000007050202400000070582024000000441
:102B700003090434034D006900630072006F0063B1
:102B80000068006900700020005400650063006860
:102B9000006E006F006C006F006700790020004934
:102BA000006E0063002E0034034300440043002005
:102BB00000520053002D0032003300320020004547
:102BC000006D0075006C006100740069006F006E9C
:102BD000002000440065006D006F002C2B6F2B73EC
:032BE0002BA72BF5
:0C2BE4001E0EF66E100EF76E000EF86E5E
:102BF00001010900F5507A6F0900F5507B6F03E180
:102C00007A6701D03DD00900F550756F0900F55085
:102C1000766F0900F550776F09000900F550E96EED
:102C20000900F550EA6E090009000900F550786FB7
:102C30000900F550796F09000900F6CF7CF1F7CF54
:102C40007DF1F8CF7EF175C1F6FF76C1F7FF77C150
:102C5000F8FF0101785302E1795307E00900F550CC
:102C6000EE6E7807F8E27907F9D77CC1F6FF7DC1EF
:102C7000F7FF7EC1F8FF01017A07000E7B5BBFD72B
:022C8000120040
:0E2C8200FE0EE3CFE9FFFF0EE3CFEAFFE9CF3E
:102C9000F3FFEACFF4FFFB0EE35003E1FC0EE35039
:102CA00009E0FB0EE30602E2FC0EE306FD0EE35034
:062CB000EE6EF1D71200E8
:0A2CB600000EF36E00EE00F0030EB6
:102CC00001D81200EA6002D0EE6AFCD7F350E96046
:062CD0001200EE6AFCD7C1
:0A2CD60011EE00F021EE00F0F86AA4
:102CE0000A9CF2EC15F003EC08F023EC14F0FBD78F
:022CF0001200D0
:0E2CF200427574746F6E205072657373656462
:072D0000202D2D200D0A001B
:020000040030CA
:0100000000FF
:0100010032CC
:0100020001FC
:010003001EDE
:0100050000FA
:0100060001F8
:0100080003F4
:01000900C036
:01000A0003F2
:01000B00E014
:01000C0003F0
:01000D0040B2
:00000001FF
