:020000040000FA
:0600000045EF1EF01200A6
:0600080004EF08F01200F5
:060018000CEF08F01200DD
:0610000045EF1EF0120096
:0610080019EF15F01200C3
:0610180095EF15F0120037
:06102A000100063D00007C
:08103000F701000009000000B7
:081038006EEC0EF0A09A6A6A4A
:10104000686A706AB8EC0DF006EC0EF0DF6AEEEC40
:101050000DF003E29EEC0DF0FAD76D8C6E6A6D9880
:101060006D9C68A607D068960101D06BD56BD66BD6
:10107000D76BF7D70101010EE96FEA6FEB6BEC6BF1
:10108000DD6BDF6A030EDF5C11E2EA6ADF3471ECCC
:101090000EF0EA22EE6AED6AEA6ADF3478EC0EF0CE
:1010A000EA22EE6AED6AAEEC0DF0ECD70101080E13
:1010B000C66F040EC76F160E706E0401300E026FFD
:1010C000040E036F080E016F840E006F0101B96BEF
:1010D000B86BE55278EF0DF06EEC0EF00101B8053B
:1010E00007E16DBA05D0686A69806988020EB86F39
:1010F0006850040B05E06950040B02E068943CDB87
:101100006DB245D06850010B09E06950010B06E053
:1011100093DFA08A0101040EB86F68906850100B2D
:1011200005E06950100B02E01DDB689868AC0FD039
:1011300069AC05D00DEC0EF0730E65EC0DF0689CFB
:101140000101E75101E0E707E75101E109D96850E2
:10115000200B04E06950200B01E0F4DA6850020B28
:101160000BE06950020B08E00DEC0EF0E6687F0E14
:10117000E66E7FEC0EF06A6A040E0101E76EB819A4
:10118000E8AE02D0E73402D0E750B85D02E2A19A9F
:101190002ED069A62BD0DF6A040EDF5C27E268A69A
:1011A00025D06CCFDEF10101DE51780BE842E84238
:1011B000E842DF6F6896DEB504D0DF5186EC0EF0B2
:1011C00003D0DF518BEC0EF0EA22EF70DF5102E129
:1011D000DFDA0AD0000EE66EE66ADE0EE66E010E7B
:1011E000E66E720E65EC0DF0DF2AD6D7A19AE552B5
:1011F00078EF0DF040EC0EF0FD0EDBA403D0E66AB4
:10120000F6EC0DF0FD0EDBA204D0010EE66EF6EC5E
:101210000DF0FE0EDB50156A700F146E0F0EE8EC29
:101220000DF069EC0DF0FD0EDBCFEFFF020EE15C7F
:1012300002E2E16AE552E16E78EF0DF040EC0EF06B
:10124000FD0EDB5003E060EC0DF002D08FEC0DF0F2
:10125000D4EC0DF0D9CFE9FFDACFEAFFEE50ED1074
:1012600003E1F36AF46A28D069EC0DF09AEC0EF011
:10127000FB0EDBCFEEFFFC0EDBCFEDFF69EC0DF0DC
:10128000EE52FA0EDBCFEFFF400E90EC0EF0880E20
:101290009FEC0EF0FD0EDB5003E060EC0DF002D091
:1012A0008FEC0DF0EA22EF74DECF14F0DDCF15F0F5
:1012B00014C0F3FF15C0F4FF020EE15C02E2E16A24
:1012C000E552E16E78EF0DF040EC0EF0FE0EDB50D3
:1012D00003E14EEC0EF009D094EC0DF02EEC0EF084
:1012E00094EC0DF0010F2EEC0EF0020EE15C02E228
:1012F000E16AE552E16E78EF0DF073EC0DF06DA848
:1013000016D05FEC0EF0400EEE16EE6AEE6AEE6A54
:101310005FEC0EF0EE7CD4DBEA22EF74400E146E2C
:101320005FEC0EF01450EF165FEC0EF0EF7CE0D3A4
:101330006D6A696A0101B86B12000101B8510FE1D1
:101340006D6A696A06EC0EF0D08EA28AA08AF28ECF
:101350006DB602D06D86FCD70101010EB86F120088
:101360000101E95122E1010EE96FEA511EE1010E8E
:10137000EA6F020ECD5D07E1B1DBEE52EF6AAEDB44
:10138000C80EEF6E1200CD0510E1E06BBDDBEE5232
:10139000080EEF6EB9DB3AEC0EF0B6DB840EEF6EA2
:1013A000010EE06F89DB800EEF6E12000101EB6B26
:1013B000EC6B020ECD5D06E194EC0EF0AADB29EC9D
:1013C0000EF010D0D1510401365D0101D25104015B
:1013D000375904E236C4D1F137C4D2F161D87EDB8B
:1013E00098DB7CDBC80EEF6E120040EC0EF0000EB6
:1013F000DE6E040EDD6E98DB040DF4CF15F0D9CF50
:10140000E9FFDACFEAFFF350EE261550ED2261DB5B
:10141000EF9EFD0EDB5002E182DB01D051DBEA22C0
:10142000DECFEEFFDDCFEDFF54DBEF9C52DB040E91
:10143000E926000EEA22EF8C020EE15C02E2E16A8C
:10144000E552E16E55D36D980101D0BF0DD0D5AFF7
:1014500009D0020ECD6FEC5101E1A8DF0101EA6B6A
:10146000E96B12004EEF0EF0040130AF0DD0010118
:10147000010ECD6FEB5101E199DF0101EA6BE96BE0
:10148000E8510DE1B0EF09F00101020ECD6F14DB60
:10149000840EEF6EEA6BE96BE85101E161DF120047
:1014A0006EEC0EF0080EDF6E0101D15D000ED25918
:1014B0000AE2D1C1DFFFCC5102E1010E03D0CC051D
:1014C00002E1020ECC6FDF50156AE850D15DD16F9A
:1014D0001550D259D26F02DBEE52DFCFEFFF380E3C
:1014E000DA6F040EDB6FD0B10DD0DF5017E0CEC144
:1014F000F6FFCFC1F7FFCE2B000ECF230800F5502B
:1015000046DBF3D7DF500AE0CEC1E9FFCFC1EAFFE7
:10151000CE2B000ECF23EF503ADBF4D7E552E8D2C2
:10152000AFDBF2DAEE52EFCFDFFFDFCF14F0145073
:101530000101D65D000ED75902E2D6C1DFFFDF50B0
:10154000146E156AE850D65DD66F1550D759D76F0F
:10155000010EDB6ADF50F36E010EDBCFF4FFF350B8
:10156000F45C16E2010EDB50EA6A380FE96E040EF5
:10157000EA22EF50E66ED3C1E9FFD4C1EAFFD32BD4
:10158000000ED423E552E750EF6E010EDB2AE2D7BE
:10159000000ED880D655000ED7550DE2C5DBB9DA5E
:1015A000B3DAEF50400B03E154DBC80E02D051DB3D
:1015B000880EEF6E12D080DA840EEF6ED851D911FA
:1015C00007E005D0D9C1FAFF0101D851F96EFADF61
:1015D0000101D59FE85101E1C3DE020EE15C02E2A8
:1015E000E16AE552E16E84D279DB0101D08FC0DA85
:1015F000DF6AF4DA02E2A2DAFCD76D8CDF6A030E4E
:10160000DF5C02E2ABDAFBD7020EE66EE66AE66A60
:10161000BA0EE66E010E5ADB6D9C0101080EC66F14
:10162000040EC76F000EBC6F040EBD6FBCC1BEF1CF
:10163000BF6F32C4B9F1B95102E1100E0BD0010EE7
:10164000E66EE66AB90EE66E010EE66E010E3DDA52
:101650000101200EB86FE5524BD2800E0401305DBF
:1016600038E10101C00ED06F04013351030A1AE0C2
:10167000010A09E0030A2BE10101BA0ECE6F360E12
:10168000CF6F120E1ED0D7DA7B0EF626370EB6DAE3
:10169000020E0101C9DAF5CFD1F1030EC5DAF5CF9B
:1016A000D2F11200030E325D0FE2C5DA7D0EF6268E
:1016B000370EA4DACEC1F6FFCFC1F7FF0800F55010
:1016C0000101D16FD26B12000101D06B1200010138
:1016D000D06B1200D5DA0401386B396B30511F0B17
:1016E000020A0EE0030A09E0010A1BE10101D08FA2
:1016F000DC0517E10401388314D00101D08F11D02B
:101700000101D08F040134BF02D0CFDA01D0D2DA88
:101710004BDAD8DA06E0DDD9EF50040B02E0010E17
:10172000386F0101D0AF07D0380ECE6F040ECF6FE7
:10173000D081020ED16F020EE15C02E2E16AE55255
:10174000E16ED6D170A00CD0DFD9EF50800807E150
:10175000C5D9EF50840803E1D7D98C0EEF6E709095
:10176000689A1200698468986D820101010EDD6F2C
:1017700021DA750E65EF0DF00101DD6B1BDA740ED9
:10178000A4D96D92699468A402D06894FCD7120021
:10179000A5DA01012D0EE76FFD0EDE1539E17E0E93
:1017A000DE15E8407F0B040DF3CFBCF1F4CFBDF1A3
:1017B000000EBC27040EBD23BCC1BEF1BDC1BFF1EC
:1017C000BE75A2D9EF503C0BE842E8420D081EE17D
:1017D000DF6A080EDF5C16E297D9020EE926000EDA
:1017E000D0D9EF50E66EDF50EA6A300FE96E040E92
:1017F000EA22E552E750EF6E87D99CDAEE2AEF2213
:10180000DF2AE7D781D936DA0AD807D023D805D01E
:10181000FD0EDE15040801E12CD8E55269D1010165
:10182000CC6BE86BEB6BEC6BE06BCD6B57D9EF9E41
:10183000C67554D9EF9EC6750CDAEF9ED06BD16B8E
:10184000D26BD56BD66BD76B4ED8B4D9030E3DD9BE
:1018500023EF0AF0020E0101CD5D02E190EF0AF0E4
:10186000CD6BE05104E128D98C0EEF6E1200E06BD5
:10187000120034DA33D9EF50400B01E0010EDF6E75
:101880000101C675080EB85D08E132C46EFF6E50E6
:1018900002E0100E01D0040EB86FCD0513E11ED981
:1018A00038D9FEDD020E0101CC5D03E117D9840EAB
:1018B00007D0DF5003E112D9C80E02D00FD9880E2D
:1018C000EF6E0FD0D5AF0CD0D851D91107E005D0AD
:1018D000D9C1FAFF0101D851F96EFADF0101D59F94
:1018E000CD6BE55205D104013051600BE842E8426E
:1018F000E842E842E842000901E0120031510C0AD6
:1019000045E00B0A3FE00C0A31E0010A22E00B0A35
:101910001EE0020A1CE0030A18E0080A10E0010AAF
:101920000CE00F0A08E0030A01E012000101D08F69
:10193000080EB86F12002DEF0BF0F4EF0AF0010162
:10194000B90ECE6F010ECF6F0CD06AEF0BF0C7EF60
:101950000CF034510101CE6FCF6BBA0ECE27010EC1
:10196000CF23D081010ED16FD08F12000101D08F13
:1019700004013451EA6ABA0FE96E010EEA2232C458
:10198000EFFF120017D9020E65EF0DF01200ABD871
:10199000050EE1260401320510E130511F0B00094C
:1019A0000CE10101D08F030E0401315D04E101015E
:1019B000010EDC6F02D00101DC6B0401325101E049
:1019C00074D030511F0B020870E134510F0B000925
:1019D0006CE034510F0B020868E3200E0101B85D82
:1019E00064E1D08F040134BF04D05FD9DDD8E8D8DA
:1019F00003D060D9D9D8E8D8EA22020EEFCFDBFFB6
:101A000021D9010B03E1000EDF9401D0DF8434BF44
:101A100002D04BD901D04ED9EA22DECFEEFFDDCF86
:101A2000EDFF030E315D0CE14DD907E034BF02D06C
:101A3000C7D801D0C9D8EA22EF82840E80D935D028
:101A4000DF7440D906E045D8EF9E43D8EF8C1CD90F
:101A500002D03FD8EF8CDF74F5D8020B02E132D907
:101A60000DE0040134BF02D0ABD801D0ADD8EA22DA
:101A7000EF923B0E146E54D907D902D03B0E50D9C9
:101A8000040134510F0B156A700F146E0F0E1522DE
:101A9000030E14C0DBFF040E15C0DBFF030EDBCF0B
:101AA000E9FF040EDBCFEAFFEF90050EE15C02E2F6
:101AB000E16AE552E16E1CD037D9DCD829EF0EF08F
:101AC000FE0EEA6ADB3471EF0EF0E66EE66A7FEF37
:101AD0000EF0DECFE9FFDDCFEAFF1200C6C1E9FF5D
:101AE000C7C1EAFF1200D9CFE6FFE1CFD9FF12004C
:101AF000E552E7CFD9FF120034510F0BE96EEA6AC5
:101B0000D890E936EA361200BCC1E9FFBDC1EAFF50
:101B1000120010D9380EEE6E040EED6E1200FE0E9D
:101B2000EA6ADB3478EF0EF0FD0EDB50E824166E27
:101B3000FE0EDB50040DF35016241200DF50040D8E
:101B4000F3CFE9FFF4CFEAFF000EE926040EEA2204
:101B5000EE6AEE6AEE6AEE6ADF2A1200DF50DBD828
:101B6000EA22EF6ADF50D2D8EA22EF6ADF2A1200B7
:101B7000020EE66EE66AE66A710EE66E0F0E66EF1C
:101B80000EF0EA22EE50EFCFEAFFE96E1200E66EA9
:101B9000DAC1E9FFDBC1EAFFDA2B000EDB23E552F5
:101BA000E750EF6EDF061200EA22EECFDEFFEDCF48
:101BB000DDFF1200000EE66EE66AE66EE66A1200CF
:101BC00034510F0B86EF0EF034510F0B8BEF0EF0EC
:101BD000152214C0DEFF15C0DDFF1200DF50146EA9
:101BE000156A0C0E145C000E15581200FE0EDBCFA9
:101BF000E6FFF5EC09F0E552E5521200F722090084
:101C0000F5CFCEF10A00F5CFCFF11200160E6F6EB0
:101C10009F0E6B6E7B0E696E1200010EE66EE66A19
:101C2000000EE66EE66A1200F76ACE25F66ECF5118
:101C3000F722080012003251F66EF76AD890F63695
:101C4000F7361200D950020FE96EDACFEAFFEF50F3
:101C50001200BEC1E9FFBFC1EAFF1200040DF3CFBD
:101C600014F0F4CF15F0000E1426040EB1DF840E2C
:101C70009FEF0EF05FD8300EEE6E040EED6E120088
:101C800032DF020EE1261200020EE66EE66ADECFB9
:101C9000E6FFDDCFE6FF050E65EF0DF00DDF8C0EE4
:101CA000EF6E1CDF840EEF6E120026DFC00EE926F9
:101CB000010E120021DFC60EE926010E120000DF20
:101CC000C1EF0DF006DFEF50800B1200E66EC1ECA5
:101CD0001AF0146E050EE15E1450120004DFE65295
:101CE0001200FE0BEA36E96EC60EE926010E12005E
:101CF000FE0BEA36E96EC00EE926010E12007EECFC
:101D000018F0146E060EE15E14501200EA6AE40F39
:101D1000E96E010E1200EA6AE10FE96E010E12008F
:101D2000D8DEE850EF16120094DFEE52080EEF6E88
:101D300029EF0EF0020EE926000EEA221200C9DE9B
:061D4000E850EF12120052
:0A1D4600DFEC13F0FB0EDBCFF3FF20
:101D5000DB06F35000090AE02DEC14F0FA0E98ECC3
:101D600014F0F3E1151CF1E1010E01D0000E0EEFAD
:101D700014F0DFEC13F03B0EE12402E3E168E652DD
:101D8000E16E010EDB6A020EDB6AF90EDBCFF6FFB5
:101D9000FA0EDBCFF7FFFB0EDBCFF8FF0800F550A4
:101DA000DF6EDF5002E132EF13F0250EDF5C02E060
:101DB00025EF13F0030EDB6A040EDB6A050EDB6A07
:101DC000060EDB6A070EDB6A47EC13F02D0EDF5CB4
:101DD0000CE02B0EDF5C09E0200EDF5C06E0230E3A
:101DE000DF5C03E0300EDF5C1AE1DF50300A14E004
:101DF000130A0FE0030A0AE00B0A05E0060AE4E111
:101E0000030EDB80E1D7030EDB82DED7030EDB841B
:101E1000DBD7030EDB86D8D7030EDB88D5D72A0E97
:101E2000DF5C1BE143EC13F091EC13F010E0030EC8
:101E3000DB8006680768130EDBCF0DF0140EDBCFD6
:101E40000EF085EC1DF0040E04C0DBFF03D0130E72
:101E50007AEC13F047EC13F00BD0090EDB6AE8ECD8
:101E600013F003E05CEC14F0FAD7090E7AEC13F0EF
:101E7000030EDBB0DB982E0EDF5C1BE147EC13F0AA
:101E80002A0EDF5C0BE143EC13F091EC13F003E15D
:101E9000130ECCEC13F047EC13F00BD0090EDB6AF9
:101EA000E8EC13F003E05CEC14F0FAD7090ECCEC8C
:101EB00013F0680EDF5C07E147EC13F0680EDF5C9F
:101EC0001DE1030E18D0740EDF5C17E07A0EDF5CA4
:101ED00014E0480EDF5C06E0540EDF5C03E05A0EAF
:101EE000DF5C02E1020E07D06C0EDF5C03E06A0EDD
:101EF000DF5C04E1010E1FEC14F0C9DBDF506E0A59
:101F000001E17FD31E0A01E192D1200A01E18FD1C4
:101F10003F0A01E149D11A0A01E146D10D0A01E166
:101F200043D1200A01E140D13A0A01E13DD1200A22
:101F300001E13AD1260A01E135D10D0A01E132D1A0
:101F40001A0A01E1D9D0200A4AE0300A1FE0460A05
:101F50000EE0250A01E083D3D950F90FE96EFF0E98
:101F6000DA20EA6E010EEE5E000EEE5AEE5A2DEC0D
:101F700014F0250EE66E95DB03E1151C01E169D333
:101F800029EC14F001E26BD3DB2A69D3080EDB6A7B
:101F9000040EDB50010806E2040EDB04F1EC13F042
:101FA000DB508BDB080EDB5009E0030EDB50010B2E
:101FB00005E172DB01E04DD3080EDB6A64DBEFCF95
:101FC000DFFFA1EC14F003E1151C01E142D329EC81
:101FD00014F001E3DB2A60DB01E141D33AD3070EC1
:101FE000DB5002080FE16DEC14F0030E34EC14F03A
:101FF0000E0EEECFDBFF0F0EEECFDBFF100EEECF9F
:10200000DBFF20D0F70EDBCF17F0F80EDBCF18F098
:10201000020E175E000E185AF70E17C0DBFFF80EFF
:1020200018C0DBFF17C0E9FF18C0EAFF24EC14F06A
:10203000166A0E0E14C0DBFF0F0E15C0DBFF100E6C
:1020400016C0DBFF0E0EDBCFE6FF0F0EDBCFE6FF89
:10205000100EDBCFE6FF38EC1BF0E552E552E552FF
:10206000130E05C0DBFF140E06C0DBFF060EDB50AF
:1020700005E0130E68EC14F001E26ADB8CEC14F05E
:1020800002E2130E37DB4FEC14F006E0040E68ECAE
:1020900014F002E2050E2EDB030EDBB005D0FCDAF5
:1020A00001E0D7D2080EDB6A090EDB6A0E0EDBCF29
:1020B000F6FF0F0EDBCFF7FF100EDBCFF8FF0800A7
:1020C000F550DF6EDF5014E092EC14F011E2A1EC59
:1020D00014F003E1151C01E1BCD2BBDB01E3DB2AF8
:1020E000090EDB2AD9500E0FE96E000ECBDBE7D7C5
:1020F000D3DA01E1B4D2ADD2C6DA110EEECFDBFFF6
:10210000120EEDCFDBFF110EDBCFE6FF120EDBCFA1
:10211000E6FFFCEC1AF0E552E552130EF3CFDBFFBD
:10212000140EF4CFDBFF060EDB5004E0130ED0DB01
:1021300001E20EDB8CEC14F002E2130EDBDAAFDB13
:1021400005E0040EC5DB02E2050ED4DA030EDBB0B7
:1021500005D0A2DA01E07DD2080EDB6A090EDB6A47
:10216000110EDBCFE9FF120EDBCFEAFFEFCFDFFF6F
:10217000DF5014E0D7DB12E2E4DB03E1151C01E1E0
:1021800068D267DB01E3DB2A090EDB2A110EDB2AAA
:10219000DBCFE9FF120EE8E3DB2AE6D77DDA01E1C7
:1021A0005ED257D2030EDB8E070EDB0410E195DB07
:1021B000040E5ADB0A0EEECFDBFF0B0EEECFDBFF79
:1021C0000C0EEECFDBFF0D0EEECFDBFF6CD0070E5B
:1021D000DB5003082CE1030EDBAE0DD0B2DA020EA9
:1021E00076DAEFCF14F0156A166A176A14AE39D092
:1021F0001568166835D0F70EDBCF15F0F80EDBCF7B
:1022000016F0020E155E000E165AF70E15C0DBFF13
:10221000F80E16C0DBFF15C0E9FF16C0EAFFEFCFCE
:1022200014F00A0E14C0DBFF0B0EDB6A38D0070E69
:10223000DB50020809E1030EDBAE04D059DB16AE19
:1022400010D00ED055DB0DD0030EDBAE12D079DAF4
:10225000020E3DDAF9DA166A176A15AE02D0166870
:102260001768E2DA0C0E16C0DBFF0D0E17C0DBFF9D
:102270001AD0F70EDBCF16F0F80EDBCF17F0020EF8
:10228000165E000E175AF70E16C0DBFFF80E17C0C9
:10229000DBFF16C0E9FF17C0EAFFD6DAC5DA0C0E7D
:1022A000DB6A0D0EDB6A060EDB5005E1010EF36EF4
:1022B000050EF3CFDBFF150EDB6A160EDB6AD95075
:1022C000370F146E000EDA20156E390E14C0DBFFC6
:1022D0003A0E15C0DBFF380EDB6A080EDB6A0A0E09
:1022E000AEDADF50780A12E0200A10E0280A0CE08B
:1022F000200A0AE03F0A06E00D0A02E0200A08E18F
:10230000020E05D0080E03D0080EDF26100E97DA55
:10231000030EDBBE02D0DB92DB94DB50800B24E0AB
:102320008ADAD890030EEB50000A08E6000EEE5C45
:10233000000EEE58000EEE58000EEE5815E213DABD
:102340000B680C680D680E68E2EC1CF00A0E00C009
:10235000DBFF0B0E01C0DBFF0C0E02C0DBFF0D0E1E
:1023600003C0DBFF2D0E08D0030EDBA202D02B0E24
:1023700003D0DBA408D0200EF36E170EF3CFDBFFE3
:10238000150EDB2A02D0170EDB6A050EDB5003E1C7
:10239000B7D901E189D0DC0E146E3C0E156E000E2B
:1023A000166E070EDBCF17F0186A196A1A6A17C083
:1023B0000BF018C00CF019C00DF01AC00EF0D3D9F4
:1023C000B2EC1DF014500024F36E15500120F46E91
:1023D00016500220F86EF4CFF7FFF3CFF6FF080097
:1023E000090EF5CFDBFF580EDF5C0FE1610EF36ED7
:1023F000090E7BD90AE3200E146E090EDBCFE7FF2E
:102400001450E75E090EE7CFDBFF070EDBCF14F0B9
:10241000156A166A176A0FDA14C00BF015C00CF0B3
:1024200016C00DF017C00EF0EECF04F0EECF05F0A1
:10243000EECF06F0EFCF07F0B2EC1DF007C0EDFFD6
:1024400006C0EDFF05C0EDFF04C0EFFF390EDBCF86
:10245000E9FFDB063A0EDBCFEAFF01E2DB06090EFD
:10246000DBCFEFFF150EDB2A4BD995E1030EDBA680
:102470001DD06F0EDF5C06E1C1D918E3150EDB2815
:102480005BDA14D0780EDF5C09E0580EDF5C06E002
:10249000620EDF5C03E0420EDF5C08E1020EF36EC9
:1024A000160EF3CFDBFF02D0150EDB6A030EDB50F6
:1024B000100B0EE0040EDBCF14F0050EDB50D880BD
:1024C000145406E2060EDB5003E1040EDB5034DA4E
:1024D00095D90AE2050EDBCFE7FF150EDB50E75E6C
:1024E000050EE7CFDBFF02D0050EDB6A040EDBCF63
:1024F00014F0160E45D9D880145414E2160EDBCF12
:10250000E6FF150EDBCFE6FF040EDBCFE6FF050E80
:10251000DB50E552E75CE552D880E754E552D880BD
:10252000E7545FD9030EDB50010B0BE1080EDB50C3
:1025300008E0B2D801E08DD0080EDB50BED8080EFE
:10254000DB6A170EDB5007E088D9170EF1D903E1DB
:10255000151C01E17ED0160EDB5016E07ED9300E40
:10256000E66E9FD802E1151C74E077D9DFCFE6FF55
:1025700067EC1CF0E552E552E552F4CF15F000018E
:10258000F31C02E1151C65E0050EDBCF14F0160EFE
:10259000DB50D880145409E2050EDBCFE7FF160E9E
:1025A000DB50E75E050EE7CFDBFF300EE66E050E73
:1025B000CBD94FE1390EDB2ADBCFE9FF3A0E01E33D
:1025C000DB2ADBCFEAFF090EEFCFDBFFDB500EE0AB
:1025D00044D9090EADD902E1151C3BE0390EDB2AC6
:1025E000DBCFE9FF3A0EEDE3DB2AEBD755D831E13B
:1025F000160EDBCFE6FF080EC3D8E552E7245DD800
:102600002ED0070EDB50030A1CE0010A14E0030A77
:1026100007E07BD9DBCFEEFF020EDBCFEDFF1FD053
:10262000F5D8196A17AE02D0186819682CD8BCD82A
:1026300019C0EEFF14D0EAD817BE186824D8B4D851
:102640000ED063D9DBCFEFFF0AD07BD905E1151C93
:1026500003E1F368F46810D0FCD801E3DB2A79D9F0
:10266000CEEF0EF0010EDBCF14F0020EDBCF15F033
:1026700014C0F3FF15C0F4FF3B0EE15C02E2E16A17
:10268000E552E16ECBD029D9020E34EF14F061D9B6
:102690000800F550DF6E1200200EE66E080EA4EF63
:1026A00014F067EC1CF0E552E552E552F3CF14F05C
:1026B000F4CF15F00001F31C1200146E156AD95006
:1026C000010F4DD91450EE261550ED221200185E60
:1026D000000E195AF70E18C0DBFFF80E19C0DBFF09
:1026E00018C0E9FF19C0EAFF1200DBCFF4FFF35076
:1026F000F45C1200DB50E76E040EE7CFDBFF120044
:102700000A0EDBCF14F00B0EDBCF15F00C0EDBCF77
:1027100016F00D0EDBCF17F0145015101610171011
:102720001200130EEECFDBFF140EEDCFDBFF130E06
:10273000DBCF14F0140EDBCF15F00001800E151462
:102740001200F70EDBCF18F0F80EDBCF19F01200F5
:10275000050EDB50E66ED950130F01D9E552E75054
:10276000EE6EED6A12000A0EDBCF04F00B0EDBCF2B
:1027700005F00C0EDBCF06F00D0EDBCF07F01200DC
:10278000DBCFE6FF150EDBCFE6FF050EDB50E55293
:10279000E724E552E7241200DB50CED8010EF36E99
:1027A000060EF3CFDBFF1200EE50EFCFEAFFE96E2B
:1027B00016C0EEFF17C0EEFF18C0EEFF1200D9CF13
:1027C000E6FFDACFE6FFE1CFD9FFE2CFDAFF120072
:1027D000DFCFE6FFE66A23EC1EF0E552E552F35048
:1027E0001200E76E080EE7CFDBFF1200EECF14F009
:1027F000EECF15F0EFCF16F0176A1200050EDBCF03
:1028000014F0150EDB50D88014541200010EDBCFEB
:1028100016F0020EDBCF17F0186A1200E552E5CF72
:10282000DAFFE7CFD9FF12000A0E14C0DBFF0B0E50
:1028300015C0DBFF1200D9500A0FAFEF14F0F36E92
:10284000070EF3CFDBFF1200EECF14F0EFCF15F041
:102850001200010EDB2A020E1200FC0EDBCFE6FF97
:10286000FD0EDBCFE6FF1200145E000E155AF70EC8
:1028700014C0DBFFF80E15C0DBFF14C0E9FF15C064
:10288000EAFF1200DA20EA6EEF2AEECFF6FF000E22
:10289000EF22EECFF7FFEF22EECFF8FF1200040E8B
:1028A000DBCFE6FF130EDB50E552E75C9ADFDB502F
:1028B00004DF060EDB501200090EDB500A0DF35048
:1028C000DF24D00FE76E090EE7CFDBFF47EF13F0F1
:1028D000DB50F36E050E75EF13F0F70EDBCF14F03F
:1028E000F80EDBCF15F01200DFCFE6FF51EF13F04B
:1028F00028DF030EECDEF6EF13F0A3EC0EF0E5524A
:10290000E552E552E55200091200BDDEEE50EFCF70
:10291000EAFFE96E010E1200130EDB50F36E040E97
:1029200075EF13F0040EDB50F36E090E75EF13F024
:10293000DBCFE6FF51EF13F0E76E050EE7CFDBFFCD
:1029400012008BDF74EF14F0DBCFE6FF86DF7DEF44
:1029500014F0D950F90FE96EFF0E42EF14F0E96E52
:08296000000EDA20EA6E1200FD
:08296800C4EC18F077EC1EF03E
:10297000C580C5A003D0FDD7C5B0FED777EC1EF04B
:10298000FA0EDB50FE0BBEEC18F025E177EC1EF0E2
:10299000FB0EDB06FC0E01E2DB06FB0EDBCF14F0C8
:1029A000FC0EDBCF15F00001800E151419E1FB0EB3
:1029B000DBCF14F0DB06FC0EDBCF15F001E2DB060B
:1029C000FD0EDB501424E96EFE0EDB501520EA6E7E
:1029D000EF50D4DB02E0F36A08D077EC1EF0DDD7CD
:1029E000C584C5B4FED7010EF36EF46AD2D3CCDB36
:1029F000E65277EC1EF0C580C5A003D0FDD7C5B068
:102A0000FED777EC1EF0FE0EDB500109B7DB02E0CB
:102A1000000E0DD077EC1EF061EC1EF0DF6EC58A63
:102A2000C588C5B8FED7C584C5B4FED7DF50E5520A
:102A3000B0D3DACFE4FFE2CFDAFFE9CFE4FFEACFA9
:102A4000E4FFF6CFE4FFF7CFE4FFF5CFE4FFF3CFE9
:102A5000E4FFF4CFE4FFFACFE4FF00EE00F0140E41
:102A6000E80403E3EECFE4FFFBD700EE14F0070E1B
:102A7000E80403E3EECFE4FFFBD7E65285DBE65242
:102A80006CEC08F09EA629D02D0EC714DF6E290E1F
:102A9000DF181EE10101030ED880FB55000EFC5526
:102AA00002E2FB6BFC6B61EC1EF0E66EB20E010104
:102AB000FB25E96E010EFC21EA6EE552E750EF6E50
:102AC000C59AC588C5B8FED70101FB2B000EFC23B3
:102AD0009E96010E0101FD6FFE6BE552E552E7CFB8
:102AE000D9FFE55200EE1AF0070EE80403E3E5CF44
:102AF000EDFFFBD700EE13F0140EE80403E3E5CF7F
:102B0000EDFFFBD7E5CFFAFFE5CFF4FFE5CFF3FF0D
:102B1000E5CFF5FFE5CFF7FFE5CFF6FFE5CFEAFF1D
:102B2000E5CFE9FFE5CFDAFF1100D8CFE4FFE0CF32
:102B3000E4FFE46EDACFE4FFE6520101F72B000E6A
:102B4000F823C90EF7190CE1F8510AE1F92B080E28
:102B50008C188C6E1E0EF95D01E1F96BF76BF86B4A
:102B60009E92E552E5CFDAFFE550E5CFE0FFE5CFF5
:102B7000D8FF1000929A898A94908B8095948C84C7
:102B800095968C9692909292929492968990899230
:102B9000899489960F0EC1121CEC08F0F90ECB6EC9
:102BA000760EE66ED6EC1DF0E5529E929F929D82C7
:102BB000D08EF28EF28CCC6AE668E66AE66A1AEC8F
:102BC0001DF0E552E552E5527EEC1EF09384F1983B
:102BD000F092F08EF088F18ED08EF28EF28C8C8492
:102BE0008C508C6E94809492800EE66E080EE66E89
:102BF000F1EC1DF0E552E552310EC86EC59E0101A3
:102C0000FD51FE1101E1F5D104000101B85102E1CD
:102C10009DEC09F0200E0101E76EB819E8AE02D074
:102C2000E73402D0E750B85D01E2DDD16D50020B10
:102C300001E0D9D10001615101E0D3D10A0EE66E65
:102C40004C0EE66E010EE66E5BEC19F0E552E552B5
:102C5000E55201014A6F4B6B090EE66EE66A4C0EB7
:102C6000E66E010EE66E960EE66E010EE66E0AEC5C
:102C70001BF0146E060EE15E145001014A514B1117
:102C800057E0EBEC19F0000EE66E010EE66EFCEC80
:102C90001AF0E552E552F3CF14F0F4CF15F014C05A
:102CA000E6FF15C0E6FFE66A000EE66E010EE66E70
:102CB000C1EC1AF0166E050EE15E1650960EE66E29
:102CC000010EE66EFB0E146E3A0E156E166A14C0F7
:102CD000E6FF15C0E6FF16C0E6FF000EE66E010E29
:102CE000E66EC2EC1BF0176E070EE15E1750000E89
:102CF000E66E010EE66EFCEC1AF0E552E552F3507A
:102D0000E66E000EE66E010EE66E9AEC19F0E552E4
:102D1000E552E552960EE66E010EE66EA00EE66EE8
:102D2000010EE66EDBEC1AF0E552E552E552E55293
:102D3000410E0101965D3FE10A0EE66EE66AE66A23
:102D4000000EE66E010EE66EC1EC1AF0146E050E72
:102D5000E15E145097C114F0156A14BE156814C0D2
:102D6000E6FF15C0E6FFEB0E166E3A0E176E186AF8
:102D700016C0E6FF17C0E6FF18C0E6FF000EE66EBD
:102D8000010EE66EC2EC1BF0196E070EE15E1950E3
:102D9000000EE66E010EE66EFCEC1AF0E552E5520E
:102DA000F350E66E000EE66E010EE66E9AEC19F038
:102DB000E552E552E552420E0101965D3FE10A0EF1
:102DC000E66EE66AE66A000EE66E010EE66EC1EC9D
:102DD0001AF0146E050EE15E145097C114F0156AD6
:102DE00014BE156814C0E6FF15C0E6FFDC0E166EB3
:102DF0003A0E176E186A16C0E6FF17C0E6FF18C035
:102E0000E6FF000EE66E010EE66EC2EC1BF0196ED8
:102E1000070EE15E1950000EE66E010EE66EFCEC48
:102E20001AF0E552E552F350E66E000EE66E010E22
:102E3000E66E9AEC19F0E552E552E552960E146EE4
:102E4000010E156E010E1416000E1516010E141843
:102E500001E1155001E0C5D096C1FAF197C1AAF180
:102E600098C1ABF199C1ACF19AC1ADF19BC1AAF186
:102E70009CC1ABF19DC1ACF19EC1ADF1EBEC19F081
:102E80000A0EE66EE66AE66A000EE66E010EE66E71
:102E9000C1EC1AF0146E050EE15E1450AA0EE66E37
:102EA000010EE66EC60E146E3A0E156E166A14C04A
:102EB000E6FF15C0E6FF16C0E6FF000EE66E010E47
:102EC000E66EC2EC1BF0176E070EE15E1750000EA7
:102ED000E66E010EE66EFCEC1AF0E552E552F35098
:102EE000E66E000EE66E010EE66E9AEC19F0E55203
:102EF000E552E552FAC1E6FF040EE66EE66AAA0E56
:102F0000E66E010EE66E30DD146E050EE15E1450C5
:102F1000040EE66EE66AE66AAA0EE66E010EE66E3C
:102F2000C1EC1AF0146E050EE15E1450EBEC19F0D2
:102F30000A0EE66EE66AE66A000EE66E010EE66EC0
:102F4000C1EC1AF0146E050EE15E1450AE0EE66E82
:102F5000010EE66EB00E146E3A0E156E166A14C0AF
:102F6000E6FF15C0E6FF16C0E6FF000EE66E010E96
:102F7000E66EC2EC1BF0176E070EE15E1750000EF6
:102F8000E66E010EE66EFCEC1AF0E552E552F350E7
:102F9000E66E000EE66E010EE66E9AEC19F0E55252
:102FA000E552E552FAC1E6FF040EE66EE66AAE0EA1
:102FB000E66E010EE66ED8DC146E050EE15E14506E
:102FC000040EE66EE66AE66AAE0EE66E010EE66E88
:102FD000C1EC1AF0146E050EE15E14500101FD6B98
:102FE000FE6BEBEC19F0320EE66E0CEC1EF0E552C7
:102FF00006D6EBEC19F00A0EE66EE66AE66A000EFB
:10300000E66E010EE66EC1EC1AF0146E050EE15E7E
:103010001450A20E146E3A0E156E166A14C0E6FF16
:1030200015C0E6FF16C0E6FF000EE66E010EE66E66
:10303000C2EC1BF0176E050EE15E1750000EE66E37
:10304000010EE66EFCEC1AF0E552E552F350E66E26
:10305000000EE66E010EE66E9AEC19F0E552E552AE
:10306000E5528C948C508C6E94809482D08EC59E48
:10307000C00EF2129D869F86800EE66E060EE66EEC
:10308000F1EC1DF0E552E552C86804000101FD5164
:10309000FE1108E1EBEC19F0F40EE66E0CEC1EF0FC
:1030A000E552F4D79CD5120012001200CDEF18F0B3
:1030B0001BEF19F00101DC0520E10101DD051DE137
:1030C000A09AF3DF6D920101DD6B0101100EB66F66
:1030D0000E0EB76FB607000EB75BB651B711FAE127
:1030E0006D84080EB66F070EB76FB607000EB75B9C
:1030F000B651B711FAE16D94A08A120045D8FD0EC1
:10310000DBCF06F0FE0EDBCF07F0050E061801E15F
:10311000075030E0E868061802E17F0E07182AE041
:10312000030E061801E1075024E0020E061801E123
:10313000075020E0010E061801E1075018E0740E58
:10314000061801E1075011E0750E061801E107505D
:103150000AE0730E061801E107500CE0720E061823
:1031600009E1075007D0A0DF05D09FDF03D0A0DF23
:1031700001D09CDF010EF36EF46A0BD0E66EA9EC71
:103180001CF0E55200091200D9CFE6FFE1CFD9FFCC
:0A3190001200E552E7CFD9FF12004C
:06319A00040130511F0B7F
:1031A000010801E012003051600BE842E842E842B9
:1031B000E842E842010801E01200345103E034051E
:1031C00001E012003151220A31E0030A24E0010A31
:1031D00015E0210A0DE0010A01E012000101710E63
:1031E000CE6F000ECF6F080ED16FD26BD08121D081
:1031F0000101710ECE6F000ECF6F1BD036C4D6F119
:1032000037C4D7F101018A0ED36F050ED46FD86B86
:10321000D96BD58F120001018A0ECE6F050ECF6FCC
:10322000070ED16FD26BC10ED06F120032C46CF09A
:103230000101D08F120005018A6B4B0E8B6F8C6BD6
:103240008D6B8E6B8F6B080E906F0001606B1A0E8A
:10325000E66E010EE66EFAEC08F0E552E5521E0E3F
:10326000E66E020EE66EFAEC08F0E552E55224D95D
:1032700000016A6B6B6B616B120049D97BD9050E3B
:10328000061801E1075002E0000E14D050D90001E9
:103290006851141804E16951151801E10DD947D995
:1032A00000016A51141805E16B51151802E1616BB8
:1032B000666B010E31D12BD90001606B6851691129
:1032C00002E1000E05D041D9EF50800B01E0010E64
:1032D00000092DE1FC0EDBCF14F037D9EE52EF5090
:1032E000D880145405E231D9EE52FC0EEFCFDBFF4B
:1032F000606BFC0EDB50605D19E26051EA6A0A0FF8
:10330000E96E050EEA22EF50E66E6051E76EFD0EA3
:10331000DBCFE9FFFE0EDBCFEAFFE750E926000E28
:10332000EA22E552E750EF6E602BE3D7C5D80001E3
:103330006051F2D0ECD8A09A0001615107E1F0D8B9
:10334000FC0EDBCF66F0010E676F616FA08AE4D0E0
:103350000AD917E1C6D8F2D802E115500BE0010EE8
:10336000DBCFE9FFDB2A020EDBCFEAFF01E3DB2A3A
:10337000EF50F1E1D5D8DFCF66F00001010E676FA5
:10338000616FA08A030EE15C02E2E16AE552E16E40
:10339000C3D0E9D818E1A5D8D1D802E115500CE086
:1033A000010EDBCFF6FFDB2A020EDBCFF7FF01E3D6
:1033B000DB2A0800F550F0E1B3D8DFCF66F000015A
:1033C000676B010E616FA08A030EE15C02E2E16AA5
:1033D000E552E16EA1D09BD8020EE126A09A000131
:1033E0006A516B1102E1000E08D06AC0E9FF6BC0A0
:1033F000EAFFEF50800B01E0010E000906E1030E29
:10340000615D01E1616B615102E1A08A4ED0020E63
:10341000615D09E1E66A000EE66EE66A5AD80001CF
:10342000030E616F41D061053FE1400E146E156AD5
:103430006651145C000E155803E2400EDF6E02D098
:1034400066C0DFFFDF50665D666F4A0E646F050E73
:10345000656F010EDFCFDBFF67510BE1010EDB5023
:1034600012E062C0F6FF63C0F7FF0800F55042D8D3
:10347000F5D7010EDB5007E062C0E9FF63C0EAFF49
:10348000EF5038D8F6D70001665107E1400EDF5CF7
:1034900002E1020E01D0030E616FDFCFE6FF4A0E9C
:1034A000E66E050EE66E15D8A08A020EE15C02E219
:1034B000E16AE552E16E30D0400EE66E0A0EE66E2D
:1034C000050EE66EE66A46D8F3CF68F0F4CF69F0F1
:1034D0001200010EE66E3ED8F3CF6AF0F4CF6BF027
:1034E0001200DF6A47D8DE5206C0DEFF07C0DDFFEC
:1034F000DD52120064C0E9FF65C0EAFFEF6E642B85
:10350000000E6523622B6323010EDB061200D9CF68
:10351000E6FFE1CFD9FF1200E552E7CFD9FF120055
:10352000FD0EDBCF62F0FE0EDBCF63F01200FB0E70
:10353000DBCF14F0FC0EDBCF15F01200DF2ADF50DA
:10354000146E156AFF0E1418120068C0E9FF69C0F6
:10355000EAFF1200020EE66E1EEC09F0146E050E74
:10356000E15E14501200D3DF030EE126A09A0001A1
:1035700061511200FD0EDBCF06F0FE0EDBCF07F02F
:02358000120037
:0E358200FE0EE3CFE9FFFF0EE3CFEAFFE9CF35
:10359000F3FFEACFF4FFFB0EE35003E1FC0EE35030
:1035A00009E0FB0EE30602E2FC0EE306FD0EE3502B
:1035B000EE6EF1D71200D9CFE6FFDACFE6FFFA0EB2
:1035C000E3CFD9FFFB0EE3CFDAFFFC0EE3CFE9FF39
:1035D000FD0EE3CFEAFFE9CFF3FFEACFF4FFDECF42
:1035E000EFFFEE66FCD7FF0EE3CFDAFFE552FF0EEA
:1035F000E3CFD9FFE5521200FE0EE3CFE9FFFF0E45
:10360000E3CFEAFFF36AF46AEE5203E0F34AF42AE6
:10361000FBD71200D9CFE6FFDACFE6FFFA0EE3CFF1
:10362000D9FFFB0EE3CFDAFFFC0EE3CFE9FFFD0E7F
:10363000E3CFEAFFE9CFF3FFEACFF4FFF80EE35060
:1036400003E1F90EE3500BE0F80EE30602E2F90E97
:10365000E306DECFEFFFEE66F1D7DD52EFD7FF0EC8
:10366000E3CFDAFFE552FF0EE3CFD9FFE5521200B8
:10367000FF0EE3CFF8FFE552FF0EE3CFF7FFE55271
:10368000FF0EE3CFF6FFE552E66AE66AE66A090056
:10369000F55209E0FD0EE32A05E1FE0EE32A02E100
:1036A000FF0EE32AF4D7FD0EE3CF05F0FE0EE3CFC5
:0A36B00006F0FF0EE3CF07F0120052
:0636BA00120100020200F3
:1036C0000008D8040A0000010102000109024300B9
:1036D000020100C0320904000001020201000524B9
:1036E0000010010424020205240600010524010043
:1036F000010705810308000209040100020A000015
:103700000007050202400000070582024000000495
:1037100003090434034D006900630072006F006305
:1037200000680069007000200054006500630068B4
:10373000006E006F006C006F006700790020004988
:10374000006E0063002E0034034300440043002059
:1037500000520053002D003200330032002000459B
:10376000006D0075006C006100740069006F006EF0
:10377000002000440065006D006F00CC360F371349
:0337800037473791
:0C378400D9CFE6FFDACFE6FFE1CFD9FF96
:10379000E2CFDAFFE652E652E652E652D950F90F8E
:1037A000146EFF0EDA20156E020E14C0DBFF030E3E
:1037B00015C0DBFF020EDBCFE6FF030EDBCFE6FF1B
:1037C000F90EDBCFE6FFFA0EDBCFE6FFFB0EDBCF19
:1037D000E6FFD950FC0FE66EFF0EDA20E66EB9EC7C
:1037E0000EF0146E070EE15C02E2E16AE552E16E52
:1037F0001450F3CFDEFFF4CFDDFFFC0EDBCFE9FF8B
:10380000FD0EDBCFEAFFEF6ADECF14F0DDCF15F05F
:1038100014C0F3FF15C0F4FF040EE15C02E2E16A9C
:10382000E552E16EE552E5CFDAFFE7CFD9FF1200AE
:103830002A0EF66E100EF76E000EF86E01010900EA
:10384000F550F26F0900F550F36F03E1F26701D014
:103850003DD00900F550ED6F0900F550EE6F0900FD
:10386000F550EF6F09000900F550E96E0900F550B9
:10387000EA6E090009000900F550F06F0900F550E3
:10388000F16F09000900F6CFF4F1F7CFF5F1F8CFA9
:10389000F6F1EDC1F6FFEEC1F7FFEFC1F8FF010150
:1038A000F05302E1F15307E00900F550EE6EF00726
:1038B000F8E2F107F9D7F4C1F6FFF5C1F7FFF6C159
:0E38C000F8FF0101F207000EF35BBFD7120004
:0238CE00D9CF50
:1038D000E6FFDACFE6FFE1CFD9FFE2CFDAFFFB0E5A
:1038E000DBCF14F0FC0EDBCF15F00001800E1514B9
:1038F0001AE1FB0EDBCFE9FFFC0EDBCFEAFFEECFD8
:10390000F3FFEDCFF4FFEE2A000EEF22F3CFE9FF35
:10391000F4CFEAFFFD0EDBCFEFFFEF50156AF36E39
:1039200015C0F4FF10D0FB0EDB50FE0806E1FD0EC3
:10393000DBCFE6FF53EC1EF005D0FD0EDBCFE6FF3C
:1039400081EC1EF0E552E552E5CFDAFFE7CFD9FF73
:02395000120063
:0E395200D9CFE6FFDACFE6FFE1CFD9FFE2CF13
:10396000DAFFFD0EDB50C96EC6AE02D0FF0E24D0CA
:103970000F0EC61408080FE00F0EC6140B080BE05C
:10398000C6889EA6FED7C750040B03E1C750010BA3
:1039900010E0000E11D00F0EC614080804E00F0E40
:1039A000C6140B0809E1C7B0FED777EC1EF0C5AC12
:1039B00002D0FE0E01D0000EE552E5CFDAFFE7CFD0
:0439C000D9FF120019
:0C39C40004500B02F3CF00F0F4CF01F030
:1039D0000C02F3500126000EF420026E04500D027A
:1039E000F3500226000EF420036E04500E02F35032
:1039F000032605500B02F3500126F4500222000E5C
:103A0000032205500C02F3500226F4500322055005
:103A10000D02F350032606500B02F3500226F45019
:103A2000032206500C02F350032607500B02F350FA
:043A30000326120057
:0C3A3400D9CFE6FFDACFE6FFE1CFD9FFE3
:103A4000E2CFDAFFC26AC06AFC0EDB407F0B3C0BA0
:103A5000C26EFC0EDB38F00B300B146EFB0EDB502D
:103A60000F0B1410C16EFD0EDB50040DF350380B1C
:103A7000156EFD0EDB380F0B070B146EFD0EDB50C1
:103A8000800B14101510C06EFC0EDBAE03D09E9C94
:103A90009D8CF28CC280E552E5CFDAFFE7CFD9FFEB
:023AA000120012
:0E3AA200234D4F444F20534C415645210A00FE
:103AB00023456E7669616E646F20706172616D324C
:103AC0003A2025730A0023456E7669616E646F2083
:103AD000706172616D313A2025730A00235265616D
:103AE00064204932433A2025630A002357726974DF
:103AF00065204932433A2025630A002352656365F5
:0A3B00006269646F3A2025730A0021
:063B0A0007C013F006C025
:103B100012F006500D02F4CF05F0F3CF04F0075079
:103B20000E02F4CF07F0F3CF06F00D02F350052696
:103B3000F4500622E86A072212500E02F3500526BE
:103B4000F4500622E86A07220EAEABEF1DF01250C9
:103B5000065E1350075A13AE000C0D50065E0E5051
:043B6000075A000CF4
:0C3B6400036A026A016A006A200EE76E24
:103B7000D89004360536063607360036013602364A
:103B800003360B50005C0C5001580D5002580E507B
:103B9000035809E30B50005E0C50015A0D50025AB5
:0C3BA0000E50035A042AE72EE4D712004E
:043BAC00D9CFE6FF88
:103BB000DACFE6FFE1CFD9FFE2CFDAFFFD0EDB502F
:103BC000FB0BCA6ECC6A9E92FD0EDBAE02D09D82CC
:103BD00001D09D92CA84E552E5CFDAFFE7CFD9FF45
:023BE0001200D1
:0E3BE200D9CFE6FFDACFE6FFE1CFD9FFE2CF81
:103BF000DAFF3F0EC716C66AC56AFD0EDB50C61255
:103C0000FC0EDB50C71293829380C68AE552E5CF43
:083C1000DAFFE7CFD9FF120033
:083C1800FF0EE3501C6EEF0EDD
:103C200001D0F30EE76EE72E13EF1EF00C0E1B6EA5
:103C3000E76AE72E19EF1EF01B2E18EF1EF01C2E60
:063C400011EF1EF012005E
:0A3C4600F36AF46AFF0EE124E96E50
:103C5000FF0EE220EA6EED6607D02F0EEF6404D06F
:0A3C60003A0EEF6001D0F32A1200C3
:063C6A00000EF36E00EEF7
:103C700000F0080E01D81200EA6002D0EE6AFCD70C
:0A3C8000F350E9601200EE6AFCD771
:063C8A0013EE00F023EE32
:103C900000F0F86A0A9C18EC1CF082EC1EF0BAECFA
:063CA00015F0FBD7120035
:0A3CA600FF0EE350ACBA04D0AF6A81
:103CB000AB8EAC8A949CACA2FED7AD6EF36EF46A68
:023CC0001200F0
:0E3CC2000F0EC614080804E00F0EC6140B08FF
:0C3CD00001E1C586C7A0FED7C950120054
:043CDC00303132331E
:0D3CE000343536373839616263646566003B
:023CEE001F0EA7
:0C3CF000C514FDE1C750040BFAE11200FE
:043CFC00C2909D9C39
:023D00001200AF
:023D02001200AD
:023D04001200AB
:093D0600000000000000010000B3
:020000040030CA
:0100000024DB
:010001000EF0
:010002003FBE
:010003001FDD
:010005008773
:010006008178
:00000001FF
