:020000040000FA
:0600000031EF1CF01200BC
:0600080004EF08F01200F5
:060018000CEF08F01200DD
:0610000031EF1CF01200AC
:06100800B4EF14F0120029
:0610180003EF15F01200C9
:06102A000100B6380000D1
:08103000F00000000C000000BC
:081038006EEC0EF0A09A6A6A4A
:10104000686A706AB8EC0DF006EC0EF0DF6AEEEC40
:101050000DF003E29EEC0DF0FAD76D8C6E6A6D9880
:101060006D9C68A607D068960001BA6BBF6BC06B19
:10107000C16BF7D70001010ED36FD46FD56BD66B60
:10108000C76BDF6A030EDF5C11E2EA6ADF3471ECE2
:101090000EF0EA22EE6AED6AEA6ADF3478EC0EF0CE
:1010A000EA22EE6AED6AAEEC0DF0ECD70001080E14
:1010B000B06F040EB16F160E706E0401300E026F29
:1010C000040E036F080E016F840E006F0001A36B06
:1010D000A26BE55278EF0DF06EEC0EF00001A20568
:1010E00007E16DBA05D0686A69806988020EA26F4F
:1010F0006850040B05E06950040B02E068943CDB87
:101100006DB245D06850010B09E06950010B06E053
:1011100093DFA08A0001040EA26F68906850100B44
:1011200005E06950100B02E01DDB689868AC0FD039
:1011300069AC05D00DEC0EF0730E65EC0DF0689CFB
:101140000001D15101E0D107D15101E109D9685025
:10115000200B04E06950200B01E0F4DA6850020B28
:101160000BE06950020B08E00DEC0EF0E6687F0E14
:10117000E66E7FEC0EF06A6A040E0001E76EA219BB
:10118000E8AE02D0E73402D0E750A25D02E2A19AB5
:101190002ED069A62BD0DF6A040EDF5C27E268A69A
:1011A00025D06CCFC8F00001C851780BE842E84266
:1011B000E842C96F6896C8B504D0C95186EC0EF0F4
:1011C00003D0C9518BEC0EF0EA22EF70C95102E155
:1011D000DFDA0AD0000EE66EE66AC80EE66E000E92
:1011E000E66E720E65EC0DF0DF2AD6D7A19AE552B5
:1011F00078EF0DF040EC0EF0FD0EDBA403D0E66AB4
:10120000F6EC0DF0FD0EDBA204D0010EE66EF6EC5E
:101210000DF0FE0EDB50156A700F146E0F0EE8EC29
:101220000DF069EC0DF0FD0EDBCFEFFF020EE15C7F
:1012300002E2E16AE552E16E78EF0DF040EC0EF06B
:10124000FD0EDB5003E060EC0DF002D08FEC0DF0F2
:10125000D4EC0DF0D9CFE9FFDACFEAFFEE50ED1074
:1012600003E1F36AF46A28D069EC0DF09AEC0EF011
:10127000FB0EDBCFEEFFFC0EDBCFEDFF69EC0DF0DC
:10128000EE52FA0EDBCFEFFF400E90EC0EF0880E20
:101290009FEC0EF0FD0EDB5003E060EC0DF002D091
:1012A0008FEC0DF0EA22EF74DECF14F0DDCF15F0F5
:1012B00014C0F3FF15C0F4FF020EE15C02E2E16A24
:1012C000E552E16E78EF0DF040EC0EF0FE0EDB50D3
:1012D00003E14EEC0EF009D094EC0DF02EEC0EF084
:1012E00094EC0DF0010F2EEC0EF0020EE15C02E228
:1012F000E16AE552E16E78EF0DF073EC0DF06DA848
:1013000016D05FEC0EF0400EEE16EE6AEE6AEE6A54
:101310005FEC0EF0EE7CD4DBEA22EF74400E146E2C
:101320005FEC0EF01450EF165FEC0EF0EF7CE0D3A4
:101330006D6A696A0001A26B12000001A2510FE1FF
:101340006D6A696A06EC0EF0D08EA28AA08AF28ECF
:101350006DB602D06D86FCD70001010EA26F12009F
:101360000001D35122E1010ED36FD4511EE1010ED1
:10137000D46F020EB75D07E1B1DBEE52EF6AAEDB70
:10138000C80EEF6E1200B70510E1CA6BBDDBEE525E
:10139000080EEF6EB9DB3AEC0EF0B6DB840EEF6EA2
:1013A000010ECA6F89DB800EEF6E12000001D56B53
:1013B000D66B020EB75D06E194EC0EF0AADB29ECC9
:1013C0000EF010D0BB510401365D0001BC51040188
:1013D000375904E236C4BBF037C4BCF061D87EDBB9
:1013E00098DB7CDBC80EEF6E120040EC0EF0000EB6
:1013F000DE6E040EDD6E98DB040DF4CF15F0D9CF50
:10140000E9FFDACFEAFFF350EE261550ED2261DB5B
:10141000EF9EFD0EDB5002E182DB01D051DBEA22C0
:10142000DECFEEFFDDCFEDFF54DBEF9C52DB040E91
:10143000E926000EEA22EF8C020EE15C02E2E16A8C
:10144000E552E16E55D36D980001BABF0DD0BFAF24
:1014500009D0020EB76FD65101E1A8DF0001D46BAD
:10146000D36B12004EEF0EF0040130AF0DD000012F
:10147000010EB76FD55101E199DF0001D46BD36B39
:10148000D2510DE1B0EF09F00001020EB76F14DB8D
:10149000840EEF6ED46BD36BD25101E161DF120089
:1014A0006EEC0EF0080EDF6E0001BB5D000EBC5945
:1014B0000AE2BBC0DFFFB65102E1010E03D0B60560
:1014C00002E1020EB66FDF50156AE850BB5DBB6FDC
:1014D0001550BC59BC6F02DBEE52DFCFEFFF380E68
:1014E000C46F040EC56FBAB10DD0DF5017E0B8C09D
:1014F000F6FFB9C0F7FFB82B000EB9230800F5506E
:1015000046DBF3D7DF500AE0B8C0E9FFB9C0EAFF15
:10151000B82B000EB923EF503ADBF4D7E552E8D2EE
:10152000AFDBF2DAEE52EFCFDFFFDFCF14F0145073
:101530000001C05D000EC15902E2C0C0DFFFDF50F4
:10154000146E156AE850C05DC06F1550C159C16F67
:10155000010EDB6ADF50F36E010EDBCFF4FFF350B8
:10156000F45C16E2010EDB50EA6A380FE96E040EF5
:10157000EA22EF50E66EBDC0E9FFBEC0EAFFBD2B18
:10158000000EBE23E552E750EF6E010EDB2AE2D7D4
:10159000000ED880C055000EC1550DE2C5DBB9DA8A
:1015A000B3DAEF50400B03E154DBC80E02D051DB3D
:1015B000880EEF6E12D080DA840EEF6EC251C31126
:1015C00007E005D0C3C0FAFF0001C251F96EFADF8F
:1015D0000001BF9FD25101E1C3DE020EE15C02E2D5
:1015E000E16AE552E16E84D279DB0001BA8FC0DA9C
:1015F000DF6AF4DA02E2A2DAFCD76D8CDF6A030E4E
:10160000DF5C02E2ABDAFBD7020EE66EE66AE66A60
:10161000A40EE66E000E5ADB6D9C0001080EB06F42
:10162000040EB16F000EA66F040EA76FA6C0A8F03F
:10163000A96F32C4A3F0A35102E1100E0BD0010E2A
:10164000E66EE66AA30EE66E000EE66E010E3DDA69
:101650000001200EA26FE5524BD2800E0401305DD6
:1016600038E10001C00EBA6F04013351030A1AE0D9
:10167000010A09E0030A2BE100016C0EB86F330E7A
:10168000B96F120E1ED0D7DA2D0EF626340EB6DA4A
:10169000020E0001C9DAF5CFBBF0030EC5DAF5CFB3
:1016A000BCF01200030E325D0FE2C5DA2F0EF626F3
:1016B000340EA4DAB8C0F6FFB9C0F7FF0800F55041
:1016C0000001BB6FBC6B12000001BA6B120000017D
:1016D000BA6B1200D5DA0401386B396B30511F0B2D
:1016E000020A0EE0030A09E0010A1BE10001BA8FB9
:1016F000C60517E10401388314D00001BA8F11D058
:101700000001BA8F040134BF02D0CFDA01D0D2DA9F
:101710004BDAD8DA06E0DDD9EF50040B02E0010E17
:10172000386F0001BAAF07D0380EB86F040EB96F2A
:10173000BA81020EBB6F020EE15C02E2E16AE55281
:10174000E16ED6D170A00CD0DFD9EF50800807E150
:10175000C5D9EF50840803E1D7D98C0EEF6E709095
:10176000689A1200698468986D820001010EC76F43
:1017700021DA750E65EF0DF00001C76B1BDA740EF0
:10178000A4D96D92699468A402D06894FCD7120021
:10179000A5DA00012D0ED16FFD0EC81539E17E0EC0
:1017A000C815E8407F0B040DF3CFA6F0F4CFA7F0E7
:1017B000000EA627040EA723A6C0A8F0A7C0A9F074
:1017C000A875A2D9EF503C0BE842E8420D081EE193
:1017D000DF6A080EDF5C16E297D9020EE926000EDA
:1017E000D0D9EF50E66EDF50EA6A300FE96E040E92
:1017F000EA22E552E750EF6E87D99CDAEE2AEF2213
:10180000DF2AE7D781D936DA0AD807D023D805D01E
:10181000FD0EC815040801E12CD8E55269D100017C
:10182000B66BD26BD56BD66BCA6BB76B57D9EF9EC5
:10183000B07554D9EF9EB0750CDAEF9EBA6BBB6BE6
:10184000BC6BBF6BC06BC16B4ED8B4D9030E3DD916
:1018500023EF0AF0020E0001B75D02E190EF0AF0FB
:10186000B76BCA5104E128D98C0EEF6E1200CA6B17
:10187000120034DA33D9EF50400B01E0010EDF6E75
:101880000001B075080EA25D08E132C46EFF6E5013
:1018900002E0100E01D0040EA26FB70513E11ED9AD
:1018A00038D9FEDD020E0001B65D03E117D9840EC2
:1018B00007D0DF5003E112D9C80E02D00FD9880E2D
:1018C000EF6E0FD0BFAF0CD0C251C31107E005D0EF
:1018D000C3C0FAFF0001C251F96EFADF0001BF9FD9
:1018E000B76BE55205D104013051600BE842E84284
:1018F000E842E842E842000901E0120031510C0AD6
:1019000045E00B0A3FE00C0A31E0010A22E00B0A35
:101910001EE0020A1CE0030A18E0080A10E0010AAF
:101920000CE00F0A08E0030A01E012000001BA8F80
:10193000080EA26F12002DEF0BF0F4EF0AF0000179
:10194000A30EB86F000EB96F0CD06AEF0BF0C7EFA3
:101950000CF034510001B86FB96BA40EB827000E1B
:10196000B923BA81010EBB6FBA8F12000001BA8F82
:1019700004013451EA6AA40FE96E000EEA2232C46F
:10198000EFFF120017D9020E65EF0DF01200ABD871
:10199000050EE1260401320510E130511F0B00094C
:1019A0000CE10001BA8F030E0401315D04E1000176
:1019B000010EC66F02D00001C66B0401325101E076
:1019C00074D030511F0B020870E134510F0B000925
:1019D0006CE034510F0B020868E3200E0001A25D99
:1019E00064E1BA8F040134BF04D05FD9DDD8E8D8F0
:1019F00003D060D9D9D8E8D8EA22020EEFCFDBFFB6
:101A000021D9010B03E1000EDF9401D0DF8434BF44
:101A100002D04BD901D04ED9EA22DECFEEFFDDCF86
:101A2000EDFF030E315D0CE14DD907E034BF02D06C
:101A3000C7D801D0C9D8EA22EF82840E80D935D028
:101A4000DF7440D906E045D8EF9E43D8EF8C1CD90F
:101A500002D03FD8EF8CDF74F5D8020B02E132D907
:101A60000DE0040134BF02D0ABD801D0ADD8EA22DA
:101A7000EF923B0E146E54D907D902D03B0E50D9C9
:101A8000040134510F0B156A700F146E0F0E1522DE
:101A9000030E14C0DBFF040E15C0DBFF030EDBCF0B
:101AA000E9FF040EDBCFEAFFEF90050EE15C02E2F6
:101AB000E16AE552E16E1CD037D9DCD829EF0EF08F
:101AC000FE0EEA6ADB3471EF0EF0E66EE66A7FEF37
:101AD0000EF0DECFE9FFDDCFEAFF1200B0C0E9FF74
:101AE000B1C0EAFF1200D9CFE6FFE1CFD9FF120063
:101AF000E552E7CFD9FF120034510F0BE96EEA6AC5
:101B0000D890E936EA361200A6C0E9FFA7C0EAFF7E
:101B1000120010D9380EEE6E040EED6E1200FE0E9D
:101B2000EA6ADB3478EF0EF0FD0EDB50E824166E27
:101B3000FE0EDB50040DF35016241200DF50040D8E
:101B4000F3CFE9FFF4CFEAFF000EE926040EEA2204
:101B5000EE6AEE6AEE6AEE6ADF2A1200DF50DBD828
:101B6000EA22EF6ADF50D2D8EA22EF6ADF2A1200B7
:101B7000020EE66EE66AE66A710EE66E0F0E66EF1C
:101B80000EF0EA22EE50EFCFEAFFE96E1200E66EA9
:101B9000C4C0E9FFC5C0EAFFC42B000EC523E5524F
:101BA000E750EF6EDF061200EA22EECFDEFFEDCF48
:101BB000DDFF1200000EE66EE66AE66EE66A1200CF
:101BC00034510F0B86EF0EF034510F0B8BEF0EF0EC
:101BD000152214C0DEFF15C0DDFF1200DF50146EA9
:101BE000156A0C0E145C000E15581200FE0EDBCFA9
:101BF000E6FFF5EC09F0E552E5521200F722090084
:101C0000F5CFB8F00A00F5CFB9F01200160E6F6EDE
:101C10009F0E6B6E7B0E696E1200010EE66EE66A19
:101C2000000EE66EE66A1200F76AB825F66EB95144
:101C3000F722080012003251F66EF76AD890F63695
:101C4000F7361200D950020FE96EDACFEAFFEF50F3
:101C50001200A8C0E9FFA9C0EAFF1200040DF3CFEB
:101C600014F0F4CF15F0000E1426040EB1DF840E2C
:101C70009FEF0EF05FD8300EEE6E040EED6E120088
:101C800032DF020EE1261200020EE66EE66ADECFB9
:101C9000E6FFDDCFE6FF050E65EF0DF00DDF8C0EE4
:101CA000EF6E1CDF840EEF6E120026DFAA0EE9260F
:101CB000000E120021DFB00EE926000E120000DF38
:101CC000C1EF0DF006DFEF50800B1200E66E3BEC2B
:101CD00019F0146E050EE15E1450120004DFE65296
:101CE0001200FE0BEA36E96EB00EE926000E120075
:101CF000FE0BEA36E96EAA0EE926000E1200A9ECE8
:101D000016F0146E060EE15E14501200EA6ACE0F51
:101D1000E96E000E1200EA6ACB0FE96E000E1200A7
:101D2000D8DEE850EF16120094DFEE52080EEF6E88
:101D300029EF0EF0020EE926000EEA221200C9DE9B
:061D4000E850EF12120052
:0A1D4600DFEC13F0FB0EDBCFF3FF20
:101D5000DB06F35000090AE02DEC14F0FA0E98ECC3
:101D600014F0F3E1151CF1E1010E01D0000E0EEFAD
:101D700014F0DFEC13F03B0EE12402E3E168E652DD
:101D8000E16E010EDB6A020EDB6AF90EDBCFF6FFB5
:101D9000FA0EDBCFF7FFFB0EDBCFF8FF0800F550A4
:101DA000DF6EDF5002E132EF13F0250EDF5C02E060
:101DB00025EF13F0030EDB6A040EDB6A050EDB6A07
:101DC000060EDB6A070EDB6A47EC13F02D0EDF5CB4
:101DD0000CE02B0EDF5C09E0200EDF5C06E0230E3A
:101DE000DF5C03E0300EDF5C1AE1DF50300A14E004
:101DF000130A0FE0030A0AE00B0A05E0060AE4E111
:101E0000030EDB80E1D7030EDB82DED7030EDB841B
:101E1000DBD7030EDB86D8D7030EDB88D5D72A0E97
:101E2000DF5C1BE143EC13F091EC13F010E0030EC8
:101E3000DB8006680768130EDBCF0DF0140EDBCFD6
:101E40000EF071EC1BF0040E04C0DBFF03D0130E88
:101E50007AEC13F047EC13F00BD0090EDB6AE8ECD8
:101E600013F003E05CEC14F0FAD7090E7AEC13F0EF
:101E7000030EDBB0DB982E0EDF5C1BE147EC13F0AA
:101E80002A0EDF5C0BE143EC13F091EC13F003E15D
:101E9000130ECCEC13F047EC13F00BD0090EDB6AF9
:101EA000E8EC13F003E05CEC14F0FAD7090ECCEC8C
:101EB00013F0680EDF5C07E147EC13F0680EDF5C9F
:101EC0001DE1030E18D0740EDF5C17E07A0EDF5CA4
:101ED00014E0480EDF5C06E0540EDF5C03E05A0EAF
:101EE000DF5C02E1020E07D06C0EDF5C03E06A0EDD
:101EF000DF5C04E1010E1FEC14F0C9DBDF506E0A59
:101F000001E17FD31E0A01E192D1200A01E18FD1C4
:101F10003F0A01E149D11A0A01E146D10D0A01E166
:101F200043D1200A01E140D13A0A01E13DD1200A22
:101F300001E13AD1260A01E135D10D0A01E132D1A0
:101F40001A0A01E1D9D0200A4AE0300A1FE0460A05
:101F50000EE0250A01E083D3D950F90FE96EFF0E98
:101F6000DA20EA6E010EEE5E000EEE5AEE5A2DEC0D
:101F700014F0250EE66E95DB03E1151C01E169D333
:101F800029EC14F001E26BD3DB2A69D3080EDB6A7B
:101F9000040EDB50010806E2040EDB04F1EC13F042
:101FA000DB508BDB080EDB5009E0030EDB50010B2E
:101FB00005E172DB01E04DD3080EDB6A64DBEFCF95
:101FC000DFFFA1EC14F003E1151C01E142D329EC81
:101FD00014F001E3DB2A60DB01E141D33AD3070EC1
:101FE000DB5002080FE16DEC14F0030E34EC14F03A
:101FF0000E0EEECFDBFF0F0EEECFDBFF100EEECF9F
:10200000DBFF20D0F70EDBCF17F0F80EDBCF18F098
:10201000020E175E000E185AF70E17C0DBFFF80EFF
:1020200018C0DBFF17C0E9FF18C0EAFF24EC14F06A
:10203000166A0E0E14C0DBFF0F0E15C0DBFF100E6C
:1020400016C0DBFF0E0EDBCFE6FF0F0EDBCFE6FF89
:10205000100EDBCFE6FF91EC19F0E552E552E552A8
:10206000130E05C0DBFF140E06C0DBFF060EDB50AF
:1020700005E0130E68EC14F001E26ADB8CEC14F05E
:1020800002E2130E37DB4FEC14F006E0040E68ECAE
:1020900014F002E2050E2EDB030EDBB005D0FCDAF5
:1020A00001E0D7D2080EDB6A090EDB6A0E0EDBCF29
:1020B000F6FF0F0EDBCFF7FF100EDBCFF8FF0800A7
:1020C000F550DF6EDF5014E092EC14F011E2A1EC59
:1020D00014F003E1151C01E1BCD2BBDB01E3DB2AF8
:1020E000090EDB2AD9500E0FE96E000ECBDBE7D7C5
:1020F000D3DA01E1B4D2ADD2C6DA110EEECFDBFFF6
:10210000120EEDCFDBFF110EDBCFE6FF120EDBCFA1
:10211000E6FF55EC19F0E552E552130EF3CFDBFF65
:10212000140EF4CFDBFF060EDB5004E0130ED0DB01
:1021300001E20EDB8CEC14F002E2130EDBDAAFDB13
:1021400005E0040EC5DB02E2050ED4DA030EDBB0B7
:1021500005D0A2DA01E07DD2080EDB6A090EDB6A47
:10216000110EDBCFE9FF120EDBCFEAFFEFCFDFFF6F
:10217000DF5014E0D7DB12E2E4DB03E1151C01E1E0
:1021800068D267DB01E3DB2A090EDB2A110EDB2AAA
:10219000DBCFE9FF120EE8E3DB2AE6D77DDA01E1C7
:1021A0005ED257D2030EDB8E070EDB0410E195DB07
:1021B000040E5ADB0A0EEECFDBFF0B0EEECFDBFF79
:1021C0000C0EEECFDBFF0D0EEECFDBFF6CD0070E5B
:1021D000DB5003082CE1030EDBAE0DD0B2DA020EA9
:1021E00076DAEFCF14F0156A166A176A14AE39D092
:1021F0001568166835D0F70EDBCF15F0F80EDBCF7B
:1022000016F0020E155E000E165AF70E15C0DBFF13
:10221000F80E16C0DBFF15C0E9FF16C0EAFFEFCFCE
:1022200014F00A0E14C0DBFF0B0EDB6A38D0070E69
:10223000DB50020809E1030EDBAE04D059DB16AE19
:1022400010D00ED055DB0DD0030EDBAE12D079DAF4
:10225000020E3DDAF9DA166A176A15AE02D0166870
:102260001768E2DA0C0E16C0DBFF0D0E17C0DBFF9D
:102270001AD0F70EDBCF16F0F80EDBCF17F0020EF8
:10228000165E000E175AF70E16C0DBFFF80E17C0C9
:10229000DBFF16C0E9FF17C0EAFFD6DAC5DA0C0E7D
:1022A000DB6A0D0EDB6A060EDB5005E1010EF36EF4
:1022B000050EF3CFDBFF150EDB6A160EDB6AD95075
:1022C000370F146E000EDA20156E390E14C0DBFFC6
:1022D0003A0E15C0DBFF380EDB6A080EDB6A0A0E09
:1022E000AEDADF50780A12E0200A10E0280A0CE08B
:1022F000200A0AE03F0A06E00D0A02E0200A08E18F
:10230000020E05D0080E03D0080EDF26100E97DA55
:10231000030EDBBE02D0DB92DB94DB50800B24E0AB
:102320008ADAD890030EEB50000A08E6000EEE5C45
:10233000000EEE58000EEE58000EEE5815E213DABD
:102340000B680C680D680E6802EC1BF00A0E00C0EA
:10235000DBFF0B0E01C0DBFF0C0E02C0DBFF0D0E1E
:1023600003C0DBFF2D0E08D0030EDBA202D02B0E24
:1023700003D0DBA408D0200EF36E170EF3CFDBFFE3
:10238000150EDB2A02D0170EDB6A050EDB5003E1C7
:10239000B7D901E189D09A0E146E380E156E000E71
:1023A000166E070EDBCF17F0186A196A1A6A17C083
:1023B0000BF018C00CF019C00DF01AC00EF0D3D9F4
:1023C0009EEC1BF014500024F36E15500120F46EA7
:1023D00016500220F86EF4CFF7FFF3CFF6FF080097
:1023E000090EF5CFDBFF580EDF5C0FE1610EF36ED7
:1023F000090E7BD90AE3200E146E090EDBCFE7FF2E
:102400001450E75E090EE7CFDBFF070EDBCF14F0B9
:10241000156A166A176A0FDA14C00BF015C00CF0B3
:1024200016C00DF017C00EF0EECF04F0EECF05F0A1
:10243000EECF06F0EFCF07F09EEC1BF007C0EDFFEC
:1024400006C0EDFF05C0EDFF04C0EFFF390EDBCF86
:10245000E9FFDB063A0EDBCFEAFF01E2DB06090EFD
:10246000DBCFEFFF150EDB2A4BD995E1030EDBA680
:102470001DD06F0EDF5C06E1C1D918E3150EDB2815
:102480005BDA14D0780EDF5C09E0580EDF5C06E002
:10249000620EDF5C03E0420EDF5C08E1020EF36EC9
:1024A000160EF3CFDBFF02D0150EDB6A030EDB50F6
:1024B000100B0EE0040EDBCF14F0050EDB50D880BD
:1024C000145406E2060EDB5003E1040EDB5034DA4E
:1024D00095D90AE2050EDBCFE7FF150EDB50E75E6C
:1024E000050EE7CFDBFF02D0050EDB6A040EDBCF63
:1024F00014F0160E45D9D880145414E2160EDBCF12
:10250000E6FF150EDBCFE6FF040EDBCFE6FF050E80
:10251000DB50E552E75CE552D880E754E552D880BD
:10252000E7545FD9030EDB50010B0BE1080EDB50C3
:1025300008E0B2D801E08DD0080EDB50BED8080EFE
:10254000DB6A170EDB5007E088D9170EF1D903E1DB
:10255000151C01E17ED0160EDB5016E07ED9300E40
:10256000E66E9FD802E1151C74E077D9DFCFE6FF55
:10257000C0EC1AF0E552E552E552F4CF15F0000137
:10258000F31C02E1151C65E0050EDBCF14F0160EFE
:10259000DB50D880145409E2050EDBCFE7FF160E9E
:1025A000DB50E75E050EE7CFDBFF300EE66E050E73
:1025B000CBD94FE1390EDB2ADBCFE9FF3A0E01E33D
:1025C000DB2ADBCFEAFF090EEFCFDBFFDB500EE0AB
:1025D00044D9090EADD902E1151C3BE0390EDB2AC6
:1025E000DBCFE9FF3A0EEDE3DB2AEBD755D831E13B
:1025F000160EDBCFE6FF080EC3D8E552E7245DD800
:102600002ED0070EDB50030A1CE0010A14E0030A77
:1026100007E07BD9DBCFEEFF020EDBCFEDFF1FD053
:10262000F5D8196A17AE02D0186819682CD8BCD82A
:1026300019C0EEFF14D0EAD817BE186824D8B4D851
:102640000ED063D9DBCFEFFF0AD07BD905E1151C93
:1026500003E1F368F46810D0FCD801E3DB2A79D9F0
:10266000CEEF0EF0010EDBCF14F0020EDBCF15F033
:1026700014C0F3FF15C0F4FF3B0EE15C02E2E16A17
:10268000E552E16ECBD029D9020E34EF14F061D9B6
:102690000800F550DF6E1200200EE66E080EA4EF63
:1026A00014F0C0EC1AF0E552E552E552F3CF14F005
:1026B000F4CF15F00001F31C1200146E156AD95006
:1026C000010F4DD91450EE261550ED221200185E60
:1026D000000E195AF70E18C0DBFFF80E19C0DBFF09
:1026E00018C0E9FF19C0EAFF1200DBCFF4FFF35076
:1026F000F45C1200DB50E76E040EE7CFDBFF120044
:102700000A0EDBCF14F00B0EDBCF15F00C0EDBCF77
:1027100016F00D0EDBCF17F0145015101610171011
:102720001200130EEECFDBFF140EEDCFDBFF130E06
:10273000DBCF14F0140EDBCF15F00001800E151462
:102740001200F70EDBCF18F0F80EDBCF19F01200F5
:10275000050EDB50E66ED950130F01D9E552E75054
:10276000EE6EED6A12000A0EDBCF04F00B0EDBCF2B
:1027700005F00C0EDBCF06F00D0EDBCF07F01200DC
:10278000DBCFE6FF150EDBCFE6FF050EDB50E55293
:10279000E724E552E7241200DB50CED8010EF36E99
:1027A000060EF3CFDBFF1200EE50EFCFEAFFE96E2B
:1027B00016C0EEFF17C0EEFF18C0EEFF1200D9CF13
:1027C000E6FFDACFE6FFE1CFD9FFE2CFDAFF120072
:1027D000DFCFE6FFE66A0FEC1CF0E552E552F3505E
:1027E0001200E76E080EE7CFDBFF1200EECF14F009
:1027F000EECF15F0EFCF16F0176A1200050EDBCF03
:1028000014F0150EDB50D88014541200010EDBCFEB
:1028100016F0020EDBCF17F0186A1200E552E5CF72
:10282000DAFFE7CFD9FF12000A0E14C0DBFF0B0E50
:1028300015C0DBFF1200D9500A0FAFEF14F0F36E92
:10284000070EF3CFDBFF1200EECF14F0EFCF15F041
:102850001200010EDB2A020E1200FC0EDBCFE6FF97
:10286000FD0EDBCFE6FF1200145E000E155AF70EC8
:1028700014C0DBFFF80E15C0DBFF14C0E9FF15C064
:10288000EAFF1200DA20EA6EEF2AEECFF6FF000E22
:10289000EF22EECFF7FFEF22EECFF8FF1200040E8B
:1028A000DBCFE6FF130EDB50E552E75C9ADFDB502F
:1028B00004DF060EDB501200090EDB500A0DF35048
:1028C000DF24D00FE76E090EE7CFDBFF47EF13F0F1
:1028D000DB50F36E050E75EF13F0F70EDBCF14F03F
:1028E000F80EDBCF15F01200DFCFE6FF51EF13F04B
:1028F00028DF030EECDEF6EF13F0A3EC0EF0E5524A
:10290000E552E552E55200091200BDDEEE50EFCF70
:10291000EAFFE96E010E1200130EDB50F36E040E97
:1029200075EF13F0040EDB50F36E090E75EF13F024
:10293000DBCFE6FF51EF13F0E76E050EE7CFDBFFCD
:1029400012008BDF74EF14F0DBCFE6FF86DF7DEF44
:1029500014F0D950F90FE96EFF0E42EF14F0E96E52
:08296000000EDA20EA6E1200FD
:0829680047DA00EE00F0140E46
:10297000E80403E3EECFE4FFFBD700EE14F0070E0C
:10298000E80403E3EECFE4FFFBD7E6526CEC08F07B
:10299000F0A012D00001F82B000EF923897A89509B
:1029A000896E52DA5BDAF8C0E6FFF9C0E6FFA70EDF
:1029B0001F6E370E59DAF090F0A212D00001FA2BF8
:1029C000000EFB238B708B508B6E3EDA47DAFAC019
:1029D000E6FFFBC0E6FF940E1F6E370E45DAF0925D
:1029E000E55200EE1AF0070EE80403E3E5CFEDFF31
:1029F000FBD700EE13F0140EE80403E3E5CFEDFF80
:102A0000FBD70FDA1100D8CFE4FFE0CFE4FFE46E8C
:102A1000F3D900EE00F0140EE80403E3EECFE4FF78
:102A2000FBD700EE14F0070EE80403E3EECFE4FF5B
:102A3000FBD7E6520001F52B000EF623C90EF5195F
:102A400037E1F65135E1F72B080E8C188C6E050E28
:102A5000F75D2CE3040E8C188C6EF76BF5D91B6EAA
:102A6000050EE15E1B5065EC18F0F00EE66E000EF0
:102A7000E66EFAC0E6FFFBC0E6FFF8C0E6FFF9C06D
:102A8000E6FF8A0E1B6E370E1C6E1D6A1BC0E6FF2A
:102A9000E66E1DC0E6FFDFD91E6E0B0EE15E1E5016
:102AA0009CD90001F86BF96BFA6BFB6BF56BF66B5D
:102AB0009E92E55200EE1AF0070EE80403E3E5CF1C
:102AC000EDFFFBD700EE13F0140EE80403E3E5CFAF
:102AD000EDFFFBD7A6D9E550E5CFE0FFE5CFD8FF66
:102AE0001000D9CFE6FFE1CFD9FF420EE126929A3E
:102AF000898A94908B8095968C9695948C849290EC
:102B000092929294929689908992899489960F0EC6
:102B1000C1121CEC08F0F90ECB6E760EE66EDDEC01
:102B20001BF0E5529E929F929D82D08EF28EF28C87
:102B3000CC6AE668E66AE66A3AEC1BF0E552E552D2
:102B4000E55256EC1CF09382F19AF090F08CF086EE
:102B50009384F198F092F08EF088F18ED08EF28E00
:102B6000F28C400EE66EE66AE66AD9CFE6FFDACF6F
:102B7000E6FF3BEC19F0146E050EE15E1450040004
:102B8000310E0001F05D02E1898001D08990310EA3
:102B90000001F15D02E1898201D08992310E0001CC
:102BA000F25D02E1898401D08994310E0001F35D68
:102BB00002E1898601D089960001A25102E19DECD3
:102BC00009F0200E0001E76EA219E8AE02D0E7344A
:102BD00002D0E750A25D01E282D06D50020B01E00D
:102BE0007ED00001D85101E078D0400EE66ED9CFFA
:102BF000E6FFDACFE6FFD5EC17F0E552E552E552F5
:102C0000E66ED950400FE96EDACFEAFFE552E750A1
:102C1000EE6EED6AD950400FE96EDACFEAFFEE5062
:102C2000ED105BE0040EE66EE66AD9CFE6FFDACF80
:102C3000E6FFF00EE66E000EE66E63EC19F0146E21
:102C4000060EE15E1450400EE66EE66AE66A600E1D
:102C5000E66E000EE66E3BEC19F0146E050EE15EBA
:102C6000145065EC18F0D9CFE6FFDACFE6FF840EFA
:102C7000146E370E156E166A14C0E6FF15C0E6FF17
:102C800016C0E6FF600EE66E000EE66E1BEC1AF054
:102C9000176E070EE15E1750400EE66EE66AE66AB2
:102CA000D9CFE6FFDACFE6FF3BEC19F0146E050E44
:102CB000E15E1450600EE66E000EE66E55EC19F003
:102CC000E552E552F350E66E600EE66E000EE66EDB
:102CD00014EC18F0E552E552E55265EC18F0320EAE
:102CE000E66EF8EC1BF0E5524AD7420EE15C02E2D8
:102CF000E16AE552E16EE552E7CFD9FF120012001A
:102D0000120047EF17F095EF17F00001C60520E11C
:102D10000001C7051DE1A09AF3DF6D920001C76BAA
:102D20000001100EA06F0E0EA16FA007000EA15B98
:102D3000A051A111FAE16D84080EA06F070EA16FDA
:102D4000A007000EA15BA051A111FAE16D94A08A29
:102D50001200D9CFE6FFE1CFD9FFFD0EDBCF06F0A1
:102D6000FE0EDBCF07F0050E061801E1075030E03C
:102D7000E868061802E17F0E07182AE0030E06181D
:102D800001E1075024E0020E061801E1075020E09F
:102D9000010E061801E1075018E0740E061801E153
:102DA000075011E0750E061801E107500AE0730E96
:102DB000061801E107500CE0720E061809E10750F1
:102DC00007D09DDF05D09CDF03D09DDF01D099DFC8
:102DD000010EE552E7CFD9FF120054D855EC19F097
:102DE000E552E552F350E66E4DD814EC18F0E5527A
:102DF000E552E55265EF18F0DACFE4FFE2CFDAFFF3
:102E0000E9CFE4FFEACFE4FFF6CFE4FFF7CFE4FF3A
:102E1000F5CFE4FFF3CFE4FFF4CFE4FFFACFE4FF14
:102E20001200E5CFFAFFE5CFF4FFE5CFF3FFE5CFE2
:102E3000F5FFE5CFF7FFE5CFF6FFE5CFEAFFE5CFFA
:102E4000E9FFE5CFDAFF1200400EE66EE66AE66AB9
:102E500019D83BEF19F016D81BEF1AF01F6E050EAC
:102E6000E15E1F5065EF18F0206E216A1FC0E6FF7B
:102E7000E66E21C0E6FFEFDF226E070EE15E225014
:0E2E8000EDEF16F0600EE66E000EE66E12002C
:022E8E0004013D
:102E900030511F0B010801E012003051600BE84275
:102EA000E842E842E842E842010801E012003451F9
:102EB00003E0340501E012003151220A31E0030A37
:102EC00024E0010A15E0210A0DE0010A01E01200E8
:102ED0000001E80EB86F000EB96F080EBB6FBC6B37
:102EE000BA8121D00001E80EB86F000EB96F1BD077
:102EF00036C4C0F037C4C1F000018A0EBD6F050EA4
:102F0000BE6FC26BC36BBF8F120000018A0EB86F19
:102F1000050EB96F070EBB6FBC6BC10EBA6F120006
:102F200032C4E3F00001BA8F120005018A6B4B0E28
:102F30008B6F8C6B8D6B8E6B8F6B080E906F00019F
:102F4000D76B1A0EE66E010EE66EFAEC08F0E5524B
:102F5000E5521E0EE66E020EE66EFAEC08F0E55241
:102F6000E55224D90001E16BE26BD86B120049D91C
:102F70007BD9050E061801E1075002E0000E14D0BF
:102F800050D90001DF51141804E1E051151801E196
:102F90000DD947D90001E151141805E1E251151886
:102FA00002E1D86BDD6B010E31D12BD90001D76B5B
:102FB000DF51E01102E1000E05D041D9EF50800B46
:102FC00001E0010E00092DE1FC0EDBCF14F037D932
:102FD000EE52EF50D880145405E231D9EE52FC0E77
:102FE000EFCFDBFFD76BFC0EDB50D75D19E2D7517B
:102FF000EA6A0A0FE96E050EEA22EF50E66ED75133
:10300000E76EFD0EDBCFE9FFFE0EDBCFEAFFE750F8
:10301000E926000EEA22E552E750EF6ED72BE3D700
:10302000C5D80001D751F2D0ECD8A09A0001D851F0
:1030300007E1F0D8FC0EDBCFDDF0010EDE6FD86FBC
:10304000A08AE4D00AD917E1C6D8F2D802E1155017
:103050000BE0010EDBCFE9FFDB2A020EDBCFEAFF3C
:1030600001E3DB2AEF50F1E1D5D8DFCFDDF000013D
:10307000010EDE6FD86FA08A030EE15C02E2E16A06
:10308000E552E16EC3D0E9D818E1A5D8D1D802E164
:1030900015500CE0010EDBCFF6FFDB2A020EDBCF72
:1030A000F7FF01E3DB2A0800F550F0E1B3D8DFCFEA
:1030B000DDF00001DE6B010ED86FA08A030EE15C2B
:1030C00002E2E16AE552E16EA1D09BD8020EE12650
:1030D000A09A0001E151E21102E1000E08D0E1C026
:1030E000E9FFE2C0EAFFEF50800B01E0010E0009AA
:1030F00006E1030ED85D01E1D86BD85102E1A08A48
:103100004ED0020ED85D09E1E66A000EE66EE66A70
:103110005AD80001030ED86F41D0D8053FE1400EC8
:10312000146E156ADD51145C000E155803E2400E52
:10313000DF6E02D0DDC0DFFFDF50DD5DDD6F4A0EE8
:10314000DB6F050EDC6F010EDFCFDBFFDE510BE125
:10315000010EDB5012E0D9C0F6FFDAC0F7FF08001D
:10316000F55042D8F5D7010EDB5007E0D9C0E9FF92
:10317000DAC0EAFFEF5038D8F6D70001DD5107E199
:10318000400EDF5C02E1020E01D0030ED86FDFCFEC
:10319000E6FF4A0EE66E050EE66E15D8A08A020E10
:1031A000E15C02E2E16AE552E16E30D0400EE66E8B
:1031B0000A0EE66E050EE66EE66A46D8F3CFDFF03D
:1031C000F4CFE0F01200010EE66E3ED8F3CFE1F04E
:1031D000F4CFE2F01200DF6A47D8DE5206C0DEFF0D
:1031E00007C0DDFFDD521200DBC0E9FFDCC0EAFFF3
:1031F000EF6EDB2B000EDC23D92BDA23010EDB066E
:103200001200D9CFE6FFE1CFD9FF1200E552E7CF98
:10321000D9FF1200FD0EDBCFD9F0FE0EDBCFDAF0C6
:103220001200FB0EDBCF14F0FC0EDBCF15F012000A
:10323000DF2ADF50146E156AFF0E14181200DFC06B
:10324000E9FFE0C0EAFF1200020EE66E1EEC09F094
:10325000146E050EE15E14501200D3DF030EE1265A
:10326000A09A0001D8511200FD0EDBCF06F0FE0E31
:06327000DBCF07F01200A5
:0A327600FE0EE3CFE9FFFF0EE3CFE9
:10328000EAFFE9CFF3FFEACFF4FFFB0EE35003E1DF
:10329000FC0EE35009E0FB0EE30602E2FC0EE3063F
:1032A000FD0EE350EE6EF1D71200FE0EE3CFE9FF04
:1032B000FF0EE3CFEAFFF36AF46AEE5203E0F34A4B
:1032C000F42AFBD71200D9CFE6FFDACFE6FFFA0ED9
:1032D000E3CFD9FFFB0EE3CFDAFFFC0EE3CFE9FF2C
:1032E000FD0EE3CFEAFFE9CFF3FFEACFF4FFF80EDC
:1032F000E35003E1F90EE3500BE0F80EE30602E2BF
:10330000F90EE306DECFEFFFEE66F1D7DD52EFD721
:10331000FF0EE3CFDAFFE552FF0EE3CFD9FFE55210
:103320001200FF0EE3CFF8FFE552FF0EE3CFF7FFE9
:10333000E552FF0EE3CFF6FFE552E66AE66AE66A7B
:103340000900F55209E0FD0EE32A05E1FE0EE32A2D
:1033500002E1FF0EE32AF4D7FD0EE3CF05F0FE0EE7
:0C336000E3CF06F0FF0EE3CF07F01200F1
:04336C001201000248
:1033700002000008D8040A0000010102000109024D
:103380004300020100C032090400000102020100F2
:10339000052400100104240202052406000105246E
:1033A0000100010705810308000209040100020A67
:1033B00000000007050202400000070582024000ED
:1033C000000403090434034D006900630072006FB8
:1033D000006300680069007000200054006500630D
:1033E0000068006E006F006C006F006700790020BD
:1033F0000049006E0063002E003403430044004384
:10340000002000520053002D003200330032002013
:103410000045006D0075006C006100740069006F6C
:10342000006E002000440065006D006F007E33C117
:0534300033C533F93340
:0A343600D9CFE6FFDACFE6FFE1CFC1
:10344000D9FFE2CFDAFFE652E652E652E652D95011
:10345000F90F146EFF0EDA20156E020E14C0DBFF9A
:10346000030E15C0DBFF020EDBCFE6FF030EDBCF42
:10347000E6FFF90EDBCFE6FFFA0EDBCFE6FFFB0E31
:10348000DBCFE6FFD950FC0FE66EFF0EDA20E66ECA
:10349000B9EC0EF0146E070EE15C02E2E16AE5524F
:1034A000E16E1450F3CFDEFFF4CFDDFFFC0EDBCF77
:1034B000E9FFFD0EDBCFEAFFEF6ADECF14F0DDCFD0
:1034C00015F014C0F3FF15C0F4FF040EE15C02E236
:1034D000E16AE552E16EE552E5CFDAFFE7CFD9FFC9
:0234E0001200D8
:0E34E2002A0EF66E100EF76E000EF86E010147
:1034F0000900F550056F0900F550066F03E10567F7
:1035000001D03DD00900F550006F0900F550016F62
:103510000900F550026F09000900F550E96E090035
:10352000F550EA6E090009000900F550036F090023
:10353000F550046F09000900F6CF07F1F7CF08F145
:10354000F8CF09F100C1F6FF01C1F7FF02C1F8FF92
:103550000101035302E1045307E00900F550EE6E48
:103560000307F8E20407F9D707C1F6FF08C1F7FF20
:1035700009C1F8FF01010507000E065BBFD7120065
:10358000D9CFE6FFDACFE6FFE1CFD9FFE2CFDAFF0E
:10359000FB0EDBCF14F0FC0EDBCF15F00001800E2C
:1035A00015141AE1FB0EDBCFE9FFFC0EDBCFEAFFBF
:1035B000EECFF3FFEDCFF4FFEE2A000EEF22F3CFB4
:1035C000E9FFF4CFEAFFFD0EDBCFEFFFEF50156A06
:1035D000F36E15C0F4FF10D0FB0EDB50FE0806E1C1
:1035E000FD0EDBCFE6FF3FEC1CF005D0FD0EDBCF80
:1035F000E6FF59EC1CF0E552E552E5CFDAFFE7CFE4
:04360000D9FF1200DC
:0C36040004500B02F3CF00F0F4CF01F0F3
:103610000C02F3500126000EF420026E04500D023D
:10362000F3500226000EF420036E04500E02F350F5
:10363000032605500B02F3500126F4500222000E1F
:10364000032205500C02F3500226F45003220550C9
:103650000D02F350032606500B02F3500226F450DD
:10366000032206500C02F350032607500B02F350BE
:04367000032612001B
:0C367400D9CFE6FFDACFE6FFE1CFD9FFA7
:10368000E2CFDAFFC26AC06AFC0EDB407F0B3C0B64
:10369000C26EFC0EDB38F00B300B146EFB0EDB50F1
:1036A0000F0B1410C16EFD0EDB50040DF350380BE0
:1036B000156EFD0EDB380F0B070B146EFD0EDB5085
:1036C000800B14101510C06EFC0EDBAE03D09E9C58
:1036D0009D8CF28CC280E552E5CFDAFFE7CFD9FFAF
:0236E0001200D6
:0E36E20007C013F006C012F006500D02F4CF20
:1036F00005F0F3CF04F007500E02F4CF07F0F3CF3C
:1037000006F00D02F3500526F4500622E86A07225F
:1037100012500E02F3500526F4500622E86A0722E2
:103720000EAE97EF1BF01250065E1350075A13AE01
:0C373000000C0D50065E0E50075A000CF5
:04373C00036A026AB0
:10374000016A006A200EE76ED89004360536063608
:10375000073600360136023603360B50005C0C503B
:1037600001580D5002580E50035809E30B50005EEB
:103770000C50015A0D50025A0E50035A042AE72EDB
:04378000E4D7120078
:0C378400237C25730A0025647C25647CEE
:1037900025730A00237C496E7465727275707432E9
:1037A000202D2025640A00237C496E746572727591
:0A37B000707431202D2025640A00FA
:0637BA00D9CFE6FFDACFD3
:1037C000E6FFE1CFD9FFE2CFDAFFFD0EDB50FB0BC6
:1037D000CA6ECC6A9E92FD0EDBAE02D09D8201D0F5
:1037E0009D92CA84E552E5CFDAFFE7CFD9FF1200F8
:1037F000FF0EE350246EEF0E01D0F30EE76EE72EBE
:10380000FFEF1BF00C0E236EE76AE72E05EF1CF0AE
:0E381000232E04EF1CF0242EFDEF1BF01200FF
:02381E00F36A4B
:10382000F46AFF0EE124E96EFF0EE220EA6EED6617
:1038300007D02F0EEF6404D03A0EEF6001D0F32AC8
:02384000120074
:0E384200000EF36E00EE00F0080E01D812002A
:10385000EA6002D0EE6AFCD7F350E9601200EE6A2B
:02386000FCD793
:0E38620013EE00F023EE00F0F86A0A9C71EC01
:0E3870001AF05AEC1CF071EC15F0FBD71200A8
:02387E00FF0E3B
:10388000E350ACBA04D0AF6AAB8EAC8A949CACA2C5
:0A389000FED7AD6EF36EF46A12006D
:06389A00303132333435F9
:0B38A0003637383961626364656600EA
:0438AC00C2909D9C8D
:0238B000120004
:0238B200120002
:0238B400120000
:0A38B6003031313000000000000046
:0238C000000006
:020000040030CA
:0100000024DB
:010001000EF0
:010002003FBE
:0100030013E9
:010005008773
:010006008178
:00000001FF
